:100000000C9476000C949E000C949E000C949E0020
:100010000C949E000C949E000C949E000C94A410D2
:100020000C949E000C949E000C949E000C94E80F7F
:100030000C949E000C949E000C949E000C949E00C8
:100040000C949E0F0C949E000C946C0F0C94460F15
:100050000C949E000C949E000C949E000C949E00A8
:100060000C949E000C949E00072C7AA5BA6CC59047
:10007000DA3B9365FC8BBC53F810FD3C5692834DE4
:10008000BD879D3AB63DCBC9BF5BBE73DA0FC93F92
:1000900000000000240027002A00000000002500C6
:1000A00028002B00000000080002010000030407E4
:1000B00000000000000000000000000023002600F7
:1000C00029000404040404040404020202020202DB
:1000D000030303030303010204081020408001020C
:1000E00004081020010204081020A51111241FBECD
:1000F000CFEFD8E0DEBFCDBF11E0A0E0B1E0ECEE85
:10010000F6E302C005900D92A638B107D9F723E0B7
:10011000A6E8B1E001C01D92AC38B207E1F710E0EB
:10012000C6E7D0E004C02197FE010E94491AC537F6
:10013000D107C9F70E94E4110C94741B0C940000C1
:10014000E5EAF2E0A089B18982E08C93A485B585C7
:100150001C92A685B78580E18C93108EA489B58901
:1001600086E08C93A289B3898C9180618C93A2895B
:10017000B3898C9188608C93A289B3898C918068B3
:100180008C930288F389E02D80818F7D8083089590
:10019000AF92BF92CF92DF92EF92FF920F931F9395
:1001A000CF93DF936C017B018B01040F151FEB01D3
:1001B0005E01AE18BF08C017D10759F06991D6018A
:1001C000ED91FC910190F081E02DC6010995892BFC
:1001D00079F7C501DF91CF911F910F91FF90EF90BB
:1001E000DF90CF90BF90AF9008950895FC01538D9C
:1001F000448D252F30E0842F90E0821B930B541701
:1002000010F0CF96089501970895FC01918D828D8D
:10021000981761F0A28DAE0FBF2FB11D5D968C9126
:10022000928D9F5F9F73928F90E008958FEF9FEF65
:100230000895FC01918D828D981731F0828DE80F21
:10024000F11D858D90E008958FEF9FEF0895FC01DB
:10025000918D228D892F90E0805C9F4F821B9109A8
:100260008F739927089585EA92E00E94270121E083
:10027000892B09F420E0822F089580E090E0892BFB
:1002800029F00E94330181110C9400000895FC01B3
:10029000A48DA80FB92FB11DA35ABF4F2C91848DE7
:1002A00090E001968F739927848FA689B7892C9344
:1002B000A089B1898C91837080648C93938D848D97
:1002C000981306C00288F389E02D80818F7D80839A
:1002D0000895EF92FF920F931F93CF93DF93EC015A
:1002E00081E0888F9B8D8C8D98131AC0E889F989DD
:1002F000808185FF15C09FB7F894EE89FF896083E0
:10030000E889F98980818370806480839FBF81E060
:1003100090E0DF91CF911F910F91FF90EF900895A2
:10032000F62E0B8D10E00F5F1F4F0F731127E02E7D
:100330008C8D8E110CC00FB607FCFACFE889F989B5
:10034000808185FFF5CFCE010E944701F1CFEB8D73
:10035000EC0FFD2FF11DE35AFF4FF0829FB7F89489
:100360000B8FEA89FB8980818062CFCFCF93DF93A7
:10037000EC01888D8823B9F0AA89BB89E889F989BD
:100380008C9185FD03C0808186FD0DC00FB607FCF2
:10039000F7CF8C9185FFF2CF808185FFEDCFCE0125
:1003A0000E944701E9CFDF91CF910895833081F01A
:1003B00028F4813099F08230A9F008958730A9F0AF
:1003C0008830C9F08430B1F4809180008F7D03C003
:1003D000809180008F7780938000089584B58F7717
:1003E00084BD089584B58F7DFBCF8091B0008F7759
:1003F0008093B00008958091B0008F7DF9CFCF93A6
:10040000DF93282F30E0F901EC55FF4F8491F9017B
:10041000EA52FF4FD491F901EE53FF4FC491CC2320
:10042000A1F081110E94D601EC2FF0E0EE0FFF1F2A
:10043000E854FF4FA591B491EC91ED2381E090E059
:1004400009F480E0DF91CF91089580E090E0FACF49
:100450001F93CF93DF93282F30E0F901EC55FF4F26
:100460008491F901EA52FF4FD491F901EE53FF4F05
:10047000C491CC23A9F0162F81110E94D601EC2F34
:10048000F0E0EE0FFF1FE656FF4FA591B4918FB736
:10049000F894EC91111108C0D095DE23DC938FBF46
:1004A000DF91CF911F910895DE2BF8CFCF93DF938B
:1004B00090E0FC01EA52FF4F24918E539F4FFC01C4
:1004C00084918823C9F090E0880F991FFC01E057C0
:1004D000FF4FA591B491FC01E656FF4FC591D49111
:1004E00061110DC09FB7F8948C91209582238C9355
:1004F0008881282328839FBFDF91CF9108956230A0
:1005000051F49FB7F8943C91822F809583238C936C
:10051000E8812E2BEFCF8FB7F894EC912E2B2C93F4
:100520008FBFEACF3FB7F8948091B5019091B601A3
:10053000A091B701B091B80126B5A89B05C02F3F87
:1005400019F00196A11DB11D3FBFBA2FA92F982FF9
:100550008827BC01CD01620F711D811D911D42E0F4
:10056000660F771F881F991F4A95D1F708958F92BC
:100570009F92AF92BF92CF92DF92EF92FF924B0188
:100580005C010E9492026B017C010E9492026C1934
:100590007D098E099F09683E734081059105A8F386
:1005A00021E0821A9108A108B10888EEC80E83E004
:1005B000D81EE11CF11C81149104A104B10429F797
:1005C000FF90EF90DF90CF90BF90AF909F908F9073
:1005D00008952FB7F8946091B1017091B2018091A4
:1005E000B3019091B4012FBF0895CF92DF92EF92A3
:1005F000FF92CF93DF93EC01072E000C880B990B31
:100600000E94AA166B017C0120E030E040E45FE329
:100610000E94091720E030E048E452E40E94B81834
:100620000E942A19C617D707D4F020E030E040EA2C
:100630005FE3C701B6010E94091720E030E048E4FB
:1006400052E40E94B81820E030E040E85FE30E94E6
:100650004C180E942A1921E06C177D070CF420E049
:10066000822F90E0DF91CF91FF90EF90DF90CF90BD
:1006700008958F929F92AF92BF92CF92DF92EF92A6
:10068000FF920F931F93CF93DF93DB01ED91FC91CA
:10069000EC01AC85BD8501E010E0EA17FB070CF02A
:1006A00045C0EF01CC0FDD1FDC011A968D919C91A6
:1006B000DC01AC0FBD1FAD90BC908F010095109573
:1006C000017011278CE99FEFE0FF02C084E690E003
:1006D000E9016A017B014C01820E931EB401C50140
:1006E0000E94F50221E030E0892BB9F48C0E9D1EAA
:1006F000B401C5010E94F50222E030E0892B69F4C3
:10070000BE01680D791DC5010E94F50223E030E0AD
:10071000892B19F40FEF1FEF09C0E6018881998139
:1007200001968217930784F499838883C801DF9127
:10073000CF911F910F91FF90EF90DF90CF90BF90DE
:10074000AF909F908F90089519821882D7018D9154
:100750009C91119701968D939C93E8CF0F931F93D3
:10076000CF93DF93EC01EE85FF85309709F0099573
:100770000E94E9026E837F83888799870A811B81A3
:100780002C813D81DC01CB01800F911FA21FB31F83
:100790008A879B87AC87BD87DF91CF911F910F918F
:1007A00008950F931F93FC010285138524853585D9
:1007B000401B510B620B730B80E077FF80891F9108
:1007C0000F910895FC01428353836483758386816E
:1007D0009781A085B185840F951FA61FB71F8287BB
:1007E0009387A487B5870895CF92DF92EF92FF9207
:1007F0000F931F93CF93DF93EC011E8120E030E035
:10080000A9016A817B818C819D810E94A31687FF4B
:1008100037C060E0812F0E94280261E088850E9435
:100820002802CA80DB80EC80FD8020E030E0A90156
:10083000C701B6010E94A719181644F520E030E060
:100840004FE753E4C701B6010E9409170E942A1915
:100850006B018B010A84DB85C02D61E08C2F0E9427
:100860005602C114D104D1F460E08C2FDF91CF91F6
:100870001F910F91FF90EF90DF90CF900C94280282
:1008800061E0812F0E94280260E0C8CFC701B60155
:10089000905820E030E04FE753E4D6CF0F3F1105EA
:1008A00011F461E0E2CFFE01FF27EC55FF4FE49128
:1008B000E33059F140F4E130B1F0E23009F10038B1
:1008C00011057CF7D1CFE73051F1E83081F1E43008
:1008D000B1F780918000806280938000D0928B007D
:1008E000C0928A0004C084B5806884BDC7BCDF9113
:1008F000CF911F910F91FF90EF90DF90CF900895CF
:1009000084B5806284BDC8BCF2CF809180008068CD
:1009100080938000D0928900C0928800E8CF8091B7
:10092000B00080688093B000C092B300E0CF8091A7
:10093000B00080628093B000C092B400D8CFCF9254
:10094000DF92EF92FF92CF93DF93FC01C681D781B4
:1009500062817381848195810E942A199B01603292
:10096000F2E07F07CCF52981E8E8CE2ED12CC21A1F
:10097000D10827FDD394CC0CDD1CCC0CDD1C0D2C38
:10098000000CEE08FF084A8128E532E0241B3109FB
:1009900047FD3395220F331F220F331F032E000C08
:1009A000440B550B2C193D094E095F09DB01653BD2
:1009B000710514F0A4EBB0E0B7FF02C0B0E0A0E016
:1009C0000E94231824EB30E040E050E00E94F91729
:1009D0002C0D3D1D4E1D5F1DE881EC3070F54981E9
:1009E00088E890E0841B910947FD9395880F991F33
:1009F000880F991F281739077CF04A8188E592E013
:100A0000841B910947FD9395880F991F880F991FA3
:100A1000281739070CF4C9010297880F991F4FB79F
:100A2000F8942E2F30E0F901EE0FFF1FE20FF31FB5
:100A3000E657FE4F928381834FBFDF91CF91FF90A6
:100A4000EF90DF90CF900895CF93DF93EC018A81F0
:100A50008E3008F08E508770806480937C00809187
:100A60007A00806480937A0080917A0086FDFCCFC2
:100A70008091780060917900762F682F072E000C06
:100A8000880B990B0E94AA1620E030E040E85AE358
:100A90000E9409176C837D838E839F836EE170E0D3
:100AA00080E090E0DF91CF910C94B702CF93DF9379
:100AB000EC018A810E94FF0121E0019709F020E00A
:100AC0002C83DF91CF910895FC0101900020E9F77C
:100AD0003197AF01481B590BBC0185EA92E00C9499
:100AE000C8008F929F92AF92BF920F931F93CF93A4
:100AF000DF93CDB7DEB7A1970FB6F894DEBF0FBE78
:100B0000CDBF19A2423008F44AE08E010F5D1F4F9D
:100B1000842E912CB12CA12CA50194010E94D717F1
:100B2000E62FB901CA01EA30F4F4E05DD801EE9392
:100B30008D01232B242B252B79F790E080E0109753
:100B400019F0CD010E946405A1960FB6F894DEBF9E
:100B50000FBECDBFDF91CF911F910F91BF90AF908E
:100B60009F908F900895E95CE1CFCF92DF92EF9252
:100B7000FF92CF93DF936B017C016DE285EA92E0F7
:100B80000E946901EC0166277727CB016C197D096A
:100B90008E099F094AE00E9471058C0F9D1FDF910D
:100BA000CF91FF90EF90DF90CF9008950C94640563
:100BB000BC01990F880B990B97FD0C94B5054AE081
:100BC0000C9471052F923F924F925F926F927F9299
:100BD0008F929F92AF92BF92CF92DF92EF92FF924D
:100BE0000F931F93CF93DF93CDB7DEB728970FB640
:100BF000F894DEBF0FBECDBFFC0180EC91E0978B77
:100C0000868B8091BD0190E0918F808F80918A02C8
:100C100090E0938F828F8091B901853009F0C7C32E
:100C20007F018091C2019091C301885891098D354F
:100C3000910508F04CC08091BD018430E1F48091B1
:100C4000C4019091C50180974797A8F48091C6018F
:100C50009091C7010997099770F4158A148A8FEF4C
:100C60009FEFDC01808B918BA28BB38B83E090E0B4
:100C70009587848755C38091BD01843440F180916C
:100C8000C4019091C501825491098E9700F530E01E
:100C900020E080E090E0DC01F901EA53FE4F408162
:100CA0005181495051094930510588F4F901E853FF
:100CB000FE4F40815181475151094231510518F190
:100CC00040815181465051094730510568F180916A
:100CD000BD018A3108F45CC08091C0019091C101CE
:100CE000843F914030F5D70155961C921E9254973F
:100CF0008FEF9FEFDC01F701808B918BA28BB38B81
:100D00008BE090E0B5CF880F991FAA1FBB1F8160B1
:100D10002C5F3F4F2038310509F0BECF20E230E094
:100D2000F701358B248B9ECF880F991FAA1FBB1FFD
:100D3000EFCF8091C2019091C30185974B9740F509
:100D4000E9EBF1E082E090E040E050E0BA01DC0144
:100D500011962091BD012A171B0609F00CF401C160
:100D600023853485275031092730310508F0F8C034
:100D700025853685235131092F30310508F4E3C02C
:100D8000258536852A5031092930310508F4E3C01C
:100D90008091BD018A31F0F18091C0019091C10133
:100DA0008032934008F49FCF8091C2019091C3019B
:100DB000C697869778F58091C4019091C501C69732
:100DC000869740F5E9EBF1E083E090E040E050E009
:100DD000BA01DC0111962091BD012A171B0609F00A
:100DE0000CF4E4C0258536852C5031092B303105B3
:100DF00008F0DBC027853089255231092B313105B8
:100E000008F4C6C0278530892C5031092A303105B5
:100E100008F4C6C08091BD01823238F18091C201D0
:100E20009091C3010697079700F5E9EBF1E082E0A6
:100E300090E040E050E0BA01DC0111962091BD0144
:100E40002A171B0609F00CF4DBC0238534852E51CC
:100E500031092731310508F4BEC0238534852C5073
:100E600031092B30310508F4C5C08701045F1F4FDD
:100E70001C821B8281E090E09A8389838091BD016E
:100E80008D3008F4EAC029E733E0AE014D5F5F4FD3
:100E9000BE016F5F7F4FC8010E943903892B09F0A3
:100EA000DCC029E733E0AE014D5F5F4FBE016F5FED
:100EB0007F4FC8010E943903019709F0CEC029E78E
:100EC00033E0AE014D5F5F4FBE016F5F7F4FC801E2
:100ED0000E9439036C01892B09F0BFC0412C512CB1
:100EE00032012091BD0189819A812817190609F0E4
:100EF0000CF4A6C029E733E0AE014D5F5F4FBE01A1
:100F00006F5F7F4FC8010E9439035C0129E733E01E
:100F1000AE014D5F5F4FBE016F5F7F4FC8010E9402
:100F20003903F1E0AF16B10409F081C0892B09F053
:100F300094C0440C551C661C771C689440F82FEF35
:100F4000C21AD20ACECF440F551F661F771F4160C9
:100F500002963496FCCE440F551F661F771FF8CFBC
:100F6000CD01019795958795D70155969C938E93C2
:100F700054970C972CF455961C921E92549708CFB8
:100F8000F701408B518B628B738B84E090E070CEC5
:100F9000440F551F661F771F41600296349619CF84
:100FA000440F551F661F771FF8CFCD010197959508
:100FB0008795D70155969C938E9354970C972CF454
:100FC00055961C921E92549725CFF701408B518B5A
:100FD000628B738B95CE440F551F661F771F416040
:100FE000258536853496235031092530310538F46E
:100FF000029622CF440F551F661F771FF1CFCD01F8
:10100000019795958795D70155969C938E93549704
:1010100040972CF455961C921E92549726CFF701B8
:10102000408B518B628B738B8CE090E021CEAB2890
:10103000A1F4019791F4440C551C661C771C7FCFDA
:10104000D7015596DC92CE925497F701408A518A87
:10105000628A738A81E090E00BCE1C821B8281E061
:1010600090E09A838983D70158968D919C915997E6
:10107000181619060CF08AC05696ED91FC9182E084
:1010800090E09A8389838281938189974E9708F0B3
:101090007DC083E090E09A838983848195810B975A
:1010A0000A9708F073C02CEB31E0AE014D5F5F4F43
:1010B000BE016F5F7F4FC8010E9439036C01892B0D
:1010C00009F064C02CEB31E0AE014D5F5F4FBE0113
:1010D0006F5F7F4FC8010E943903019709F056C026
:1010E000412C512C3201F701208D318D89819A815B
:1010F000821793070CF0EBC02CEB31E0AE014D5F93
:101100005F4FBE016F5F7F4FC8010E9439034C01E2
:10111000F3E0CF16D10461F12CEB31E0AE014D5F6D
:101120005F4FBE016F5F7F4FC8010E9439035C01B2
:1011300023E0C216D10471F42CEB31E0AE014D5F17
:101140005F4FBE016F5F7F4FC8010E943903A81631
:10115000B906E1F48114910409F4ABC08A9489289A
:10116000A9F4AB2899F4440C551C661C771CABC041
:101170002CEB31E0AE014D5F5F4FBE016F5F7F4FE3
:10118000C8010E9439038816990631F2D701569694
:10119000ED91FC9182819381C697869778F5848141
:1011A00095814B97459750F5DF0116966F0126EC18
:1011B000C20ED11C20E030E040E050E060E070E082
:1011C00080E090E00D911C911197095011090830B1
:1011D0001105A0F412960D911C911397015111095C
:1011E0000D30110508F481C012960D911C911397D2
:1011F000045011090530110508F4F2C08091BD01B9
:10120000893380F1828193818957910983359105D2
:1012100048F584819581CA97899720F59F012A5FB7
:101220003F4F812C912C540143E050E0D9016D9146
:101230007C9111976A5071096930710598F4129682
:101240006D917C911397665171096131710508F4B4
:10125000CBC012966D917C91665071096730710513
:1012600008F4EDC08091BD01823209F0EDC08281A9
:1012700093810A97099708F0E7C0A091BD01B0E0FB
:10128000A150B048AA0FBB1FAE0FBF1F8D919C91FC
:101290000A97099708F0D8C0F701158A148A8FEFCA
:1012A0009FEFDC01808B918BA28BB38B86E090E06B
:1012B000DFCCAA94AB2809F069CF440C551C661CFE
:1012C000771C689440F8BFEFCB1ADB0A0CCFD58AA5
:1012D000C48AD701408A518A628A738A82E090E088
:1012E0001D969C938E931C971BC001E00E94131ABD
:1012F00021601496AC15BD0509F064CFF701208B71
:10130000318B428B538B00E20E942E1A268737873F
:1013100085E090E09587848780E390E0958B848BCF
:10132000F701848D81110AC380899189A289B389CB
:101330008F3F9F4FAF4FBF4F21F481E0D7015C96A5
:101340008C93D7015C968C915C97833058F15C96B6
:101350001C928DE491E00E94D60587010C5F1F4F1F
:101360006701BCE0CB0ED11C8CE591E00E94D60554
:10137000F80161918F0170E090E080E04AE00E9406
:1013800071050C151D0581F78EE591E00E9464053D
:10139000D70112968D919C911397019613969C9369
:1013A0008E93129782E08093B9011092BD01289626
:1013B0000FB6F894DEBF0FBECDBFDF91CF911F9166
:1013C0000F91FF90EF90DF90CF90BF90AF909F90E4
:1013D0008F907F906F905F904F903F902F900895E7
:1013E00001E00E94131A85CFD501C401880F991F0F
:1013F000AA1FBB1F4C015D01689480F84E5F5F4FD0
:101400002C5F3F4F4B33510509F010CF9F012A58F5
:101410003F4FD9012D913C912A5031092930310596
:1014200008F020CF2CE130E0F701358B248BD70179
:10143000808A918AA28AB38A8AE090E051CF880C90
:10144000991CAA1CBB1CDACF828193818957910910
:101450008335910560F58091BD01813240F1848131
:101460009581CA97899718F59F012A5F3F4F812C74
:10147000912C540143E050E0D9016D917C9111977A
:101480006A5071096930710590F412966D917C91E2
:101490001397665171096131710568F112966D916A
:1014A0007C91665071096730710508F44FC08281E4
:1014B00093818C549109C59708F07CC08091BD013F
:1014C000843009F048C0848195818097479708F05F
:1014D00042C08681978109970997E8F5F701158A37
:1014E000148A8FEF9FEFDC01808B918BA28BB38BE3
:1014F00087E090E0BDCBD501C401880F991FAA1FDA
:10150000BB1F4C015D01689480F84E5F5F4F2C5FFC
:101510003F4F4332510509F0AFCF9F012A5B3F4F48
:10152000D9012D913C912A5031092930310508F01B
:10153000BECF20E130E0F701358B248BD701808AC4
:10154000918AA28AB38A86E090E0CACE880C991C60
:10155000AA1CBB1CDACF8091BD01843458F1848170
:10156000958189549109C39728F59F012A5F3F4FC0
:10157000AF014A575F4F812C912C5401D9016D91D5
:101580007C911197695071096930710598F4129630
:101590006D917C911397665171096131710508F461
:1015A000A0C012966D917C916650710967307105EB
:1015B00008F4B4C08091BD018634C0F1828193816A
:1015C0000C970B9798F5848195810997099770F589
:1015D000868197818C974F9748F58085918589976B
:1015E0004D9720F59F01265F3F4F812C912C540190
:1015F00045E050E0D9016D917C9111976C507109D3
:101600006B30710598F412966D917C9113976E5121
:1016100071096731710508F486C012966D917C914D
:10162000695071096930710508F4A8C08091BD0145
:10163000883508F4B2C082819381855891098B3531
:10164000910508F0AAC084819581825491098E97F2
:1016500008F0A3C08F01045C1F4F8DE190E030E0E3
:1016600020E04091BD014450550B8417950714F5B7
:10167000A80142505109DA014D915C91495051093C
:101680004830510508F089C0BC016F5F7F4FD80119
:101690004D915C911197475051094730510508F41D
:1016A00072C04D915C91485151094231510508F485
:1016B00071C0CB01019795958795D70155969C935D
:1016C0008E9354978A970CF468C0C901330FAA0B04
:1016D000BB0BF701808B918BA28BB38B89E090E0E1
:1016E000C7CAD501C401880F991FAA1FBB1F4C018F
:1016F0005D01689480F82C5F3F4F4217530709F053
:101700003DCF20E230E0F701358B248BD701808A72
:10171000918AA28AB38A87E090E0E2CD880C991C76
:10172000AA1CBB1CE8CFD501C401880F991FAA1FB2
:10173000BB1F4C015D01689480F84E5F5F4F2C5FCA
:101740003F4F4534510509F055CF9F0126573F4F74
:10175000D9012D913C912C5031092B30310508F0E5
:1017600065CF20E230E0F701358B248BD701808AEA
:10177000918AA28AB38A88E090E0B2CD880C991C45
:10178000AA1CBB1CDACF220F331F216002960C5F0C
:101790001F4F67CF220F331FF9CF8091BD018032D9
:1017A00079F5828193810697069750F5848195811A
:1017B0000997099728F59F012A5F3F4FAF01425CC7
:1017C0005F4F812C912C5401D9016D917C9111971F
:1017D000665071096630710598F412966D917C918E
:1017E0001397695171096331710508F485C0129628
:1017F0006D917C91695071096930710508F499C047
:10180000D70158962D903C90B6E02B1631040CF47D
:10181000C9CD8F010E5F1F4F85EC882E8DE9982E64
:101820008CE1A82E81E8B82E93E0C92ED12CF801C6
:10183000648175816080718090E080E00E94A816CC
:101840006D837E838F839887B30190E080E00E9450
:10185000A8162B013C012DEC3CEC4CE45FE30E940C
:1018600009179B01AC016D817E818F8198850E9453
:10187000A316F0E0E0E087FD16C02DEC3CEC4CE454
:101880005FE36D817E818F8198850E9409179B019E
:10189000AC01C301B2010E94A316E2E0F0E087FDB3
:1018A00002C0E1E0F0E0A501940163E971E080E0AD
:1018B00091E00E94C7174F01FF0FAA08BB088626B8
:1018C0009726A826B926FFEFCF1ADF0A0E5F1F4F13
:1018D0002C143D0409F0ABCFD70150968D929D9208
:1018E000AD92BC92539780E290E055969C938E9374
:1018F00054978FEF9FEFF4CCD501C401880F991F47
:10190000AA1FBB1F4C015D01689480F82C5F3F4FFC
:101910002417350709F058CF2EE030E0F701358B5A
:10192000248BD701808A918AA28AB38A8FE090E0C3
:10193000D7CC880C991CAA1CBB1CE8CF813061F461
:10194000908921893289438944833583268397830B
:101950008F5FF701848FF5CC8230D1F79089218990
:10196000328943894087318722879387F1CF0F934C
:101970001F9390E0FC01EA52FF4F6491FC01EE538B
:10198000FF4FE491F0E0EE0FFF1FE854FF4F859109
:10199000949108E813E120E030E040E00E946011FB
:1019A000611571058105910529F06F5F7F4F8F4F9C
:1019B0009F4F9F701F910F910895CF92DF92EF92EA
:1019C000FF92CF93DF93EC010E94E9020E94A816D8
:1019D0006B017C012A8D3B8D4C8D5D8D0E944B18D7
:1019E00020E030E048EC52E40E94A71918160CF0F1
:1019F0004DC0CA8EDB8EEC8EFD8E88859985813038
:101A0000910509F44AC08230910509F454C0892B2C
:101A100069F460E08C890E94280260E08E890E944F
:101A20002802888D0E94B70C7B836A8388859985FC
:101A30008230910509F051C08A819B819B878A87FA
:101A40002C813D813D872C872E813F813F872E87CA
:101A50000E94D8058CE591E00E94D6058C859D8575
:101A60000E94D8058CE591E00E94D6056E857F85A1
:101A7000072E000C880B990B97FF2BC00E94B50511
:101A80008EE591E00E94640519861886DF91CF915A
:101A9000FF90EF90DF90CF90089561E08C890E94D5
:101AA000280261E08E890E942802888D0E94B70C6E
:101AB0007D836C83BBCF60E08C890E94280261E04B
:101AC0008E890E942802888D0E94B70C7F836E83C6
:101AD000ADCF4AE00E947105D3CF019699878887E0
:101AE000D5CFEF92FF920F931F93CF93DF937C019B
:101AF000162F072F8DE291E0F7019183808380E01C
:101B000090E0A4EBB2E482839383A483B58383E063
:101B100090E00E944F1AEC018091AE018C3008F0E9
:101B20006FC091E0980F9093AE01888390E0FC0124
:101B3000EE0FFF1FE80FF91FE657FE4F88EB9BE003
:101B400092838183F701D783C683108701878881B9
:101B50008C3008F04EC061E0812F0E9456028881CF
:101B6000282F30E0F901EE0FFF1FE20FF31FE657B9
:101B7000FE4F1F736081607C612B608319821A8223
:101B80002CE0622F0E94071A829FB001112430E0DE
:101B900020E0AB01420F531FFA01EE0FFF1FE40FCD
:101BA000F51FE657FE4F908196FD16C02F5F3F4F01
:101BB0002C30310571F781110FC01092800082E046
:101BC000809381001092850010928400B19A8091D8
:101BD0006F00826080936F00E8818E2F90E0FC019F
:101BE000EE0FFF1FE80FF91FE657FE4F808180645C
:101BF0008083DF91CF911F910F91FF90EF90089517
:101C00008FEF88839FCF0F931F93CF93DF938091A4
:101C1000880190918901892B09F049C086E090E004
:101C20000E944F1A8C018AE090E00E944F1AEC014A
:101C30006FE070E00E94710DF801D183C0838AE0EB
:101C400090E00E944F1AEC016DE070E00E94710D6F
:101C5000F801D383C2838EE090E00E944F1AEC011A
:101C600083E391E0998388831A821B821C821D8200
:101C700082E090E09F838E8383E090E0998788875D
:101C800083E190E09B878A8761E082E00E945602B0
:101C900061E083E00E94560261E083E10E94560207
:101CA000F801D583C4831093890100938801809142
:101CB000880190918901DF91CF911F910F91089533
:101CC000EF92FF920F931F93CF93DF938091860142
:101CD00090918701892B09F0CEC08AE090E00E94A4
:101CE0004F1A8C018DE190E00E944F1AEC0185E1C2
:101CF00091E09983888380E090E0A0E8BFEB8A833D
:101D00009B83AC83BD838BE091E09F838E8381E0D6
:101D10008E8B1D8A1C8A188A198A1A8A1B8A0E942D
:101D2000E9026C877D878E879F879E012A5F3F4FE0
:101D3000388F2F8B188619861A861B86688B798BAD
:101D40008A8B9B8B198E1A8E1B8E1C8EF801D18369
:101D5000C08385E090E00E944F1AEC018BE191E096
:101D60009983888388E190E09B838A831C8260E06A
:101D70000E945602F801D383C28388E090E00E945B
:101D80004F1AEC0181E2E82E81E0F82EF982E88218
:101D90008EE090E09B838A831C821D821E821F82BC
:101DA00060E00E945602F801D583C48388E090E089
:101DB0000E944F1AEC01F982E88280E190E09B8357
:101DC0008A831C821D821E821F8260E00E9456024E
:101DD000F801D783C68382E290E00E944F1AEC019B
:101DE00087E291E099838883198618861B861A8674
:101DF0001D861C861F861E8684E090E0998B888B4A
:101E000085E090E09B8B8A8B86E090E09D8B8C8BAD
:101E100087E090E09F8B8E8B88E090E0998F888F91
:101E20001A8E1B8E1C8E1D8E1E8E1F8E18A219A23E
:101E300061E084E00E94560261E08A890E945602B5
:101E400061E08C890E94560261E08E890E945602F0
:101E500060E088E00E94560261E088890E942802C2
:101E600060E08A890E942802F801D187C087109318
:101E70008701009386018091860190918701DF910F
:101E8000CF911F910F91FF90EF9008951F920F92A5
:101E90000FB60F9211242F933F934F935F936F933D
:101EA0007F938F939F93AF93BF93EF93FF9385EAB5
:101EB00092E00E944701FF91EF91BF91AF919F91F6
:101EC0008F917F916F915F914F913F912F910F90E3
:101ED0000FBE0F901F9018951F920F920FB60F9282
:101EE00011242F938F939F93EF93FF93E091B5026B
:101EF000F091B6028081E091BB02F091BC0282FDBC
:101F00001BC090818091BE028F5F8F732091BF02B2
:101F1000821741F0E091BE02F0E0EB55FD4F958F46
:101F20008093BE02FF91EF919F918F912F910F901F
:101F30000FBE0F901F9018958081F4CF1F920F92C3
:101F40000FB60F9211242F933F938F939F93AF93CC
:101F5000BF938091B1019091B201A091B301B09172
:101F6000B4013091B00123E0230F2D3758F50196CD
:101F7000A11DB11D2093B0018093B1019093B201D6
:101F8000A093B301B093B4018091B5019091B601D3
:101F9000A091B701B091B8010196A11DB11D809328
:101FA000B5019093B601A093B701B093B801BF916A
:101FB000AF919F918F913F912F910F900FBE0F90F6
:101FC0001F90189526E8230F0296A11DB11DD2CFB0
:101FD0001F920F920FB60F9211242F933F934F939E
:101FE0005F936F937F938F939F93AF93BF93CF93A1
:101FF000DF93EF93FF938091AF01C091AE01D0E0EA
:1020000087FF24C010928500109284008091AF0158
:102010008F5F8093AF018091AF01082E000C990B68
:102020008C179D0724F48091AF018C30C4F180910E
:10203000840090918500049680349C4908F47AC00D
:102040008091840090918500049676C08091AF01C4
:10205000082E000C990B8C179D07C4F6E091AF0178
:102060008E2FEE0F990BFC01EE0FFF1FE80FF91FEB
:10207000E657FE4F808186FFC9CFE091AF018E2FDA
:10208000EE0F990BFC01EE0FFF1FE80FF91FE6574B
:10209000FE4F808160E08F730E942802B7CF2091AD
:1020A000840030918500E091AF018E2FEE0F990BE7
:1020B000FC01EE0FFF1FE80FF91FE657FE4F81816D
:1020C0009281820F931F9093890080938800E09102
:1020D000AF018E2FEE0F990BFC01EE0FFF1FE80FE3
:1020E000F91FE657FE4F808186FF11C0E091AF01D6
:1020F0008E2FEE0F990BFC01EE0FFF1FE80FF91F5B
:10210000E657FE4F808161E08F730E942802FF91A5
:10211000EF91DF91CF91BF91AF919F918F917F917F
:102120006F915F914F913F912F910F900FBE0F9044
:102130001F90189580E49CE9909389008093880013
:102140008FEF8093AF01E3CF1F920F920FB60F92E4
:1021500011242F933F934F935F936F937F938F93AC
:102160009F93AF93BF93EF93FF938091BA010E9427
:10217000FF012091BE013091BF012F5F3F4F30938F
:10218000BF012093BE019091BD01953618F096E0F5
:102190009093B9019091B901943009F466C0B8F4F4
:1021A0009230F1F0933009F444C09091BC0199232E
:1021B00009F46BC081117AC08091BB01882309F4B6
:1021C00063C08091BB0161E00E9428025EC095302F
:1021D00009F457C0963049F791E090938A024FC0B6
:1021E0008111E3CF2091BE013091BF01243631052A
:1021F00028F41092BF011092BE01D7CF10928A022C
:102200001092BD01E091BD0191E09E0F9093BD0140
:10221000F0E02091BE013091BF01EE0FFF1FE754A7
:10222000FE4F308727831092BF011092BE0193E0CA
:1022300019C0813009F0B9CFE091BD0191E09E0F46
:102240009093BD01F0E02091BE013091BF01EE0FEF
:10225000FF1FE754FE4F308727831092BF01109273
:10226000BE0194E09093B901A0CF882359F2209148
:10227000BE013091BF012536310508F496CF95E0B7
:10228000F1CF811192CFB5CF2D9AFF91EF91BF91F0
:10229000AF919F918F917F916F915F914F913F91FE
:1022A0002F910F900FBE0F901F9018958091BB013A
:1022B000882321F08091BB0160E086CF2D98E5CF87
:1022C000CF92DF92EF92FF920F931F93E82FF92F97
:1022D00005C0015011092109310961F1908196234E
:1022E0009417B9F305C0015011092109310911F101
:1022F000908196239413F7CFC12CD12CE12CF12C93
:102300000AC08FEFC81AD80AE80AF80A0C151D058A
:102310002E053F0579F080818623841791F36C2D7B
:102320007D2D8E2D9F2D1F910F91FF90EF90DF90AF
:10233000CF90089560E070E080E090E01F910F91F1
:10234000FF90EF90DF90CF900895E5EAF2E01382DE
:10235000128288EE93E0A0E0B0E084839583A683A8
:10236000B7838FE391E09183808385EC90E095873C
:10237000848784EC90E09787868780EC90E0918B4F
:10238000808B81EC90E0938B828B82EC90E0958B3C
:10239000848B86EC90E0978B868B118E128E138E39
:1023A000148EE2E4F3E016821782108611861286FC
:1023B00013861486158616861786108A118A128A45
:1023C000138A148A158A0895789484B5826084BD2E
:1023D00084B5816084BD85B5826085BD85B5816029
:1023E00085BD80916E00816080936E0010928100A7
:1023F0008091810082608093810080918100816062
:102400008093810080918000816080938000809122
:10241000B10084608093B1008091B00081608093AE
:10242000B00080917A00846080937A0080917A0075
:10243000826080937A0080917A00816080937A0034
:1024400080917A00806880937A001092C100109287
:1024500084031092850310928603109287031092D2
:1024600044031092450310924603109247030E94C2
:10247000E9026B017C014B015C0128EB820E2BE031
:10248000921EA11CB11C0E94E9026C157D058E05EF
:102490009F0528F086169706A806B906A0F768EEED
:1024A00073E080E090E00E94B7020E94A0000E94CA
:1024B000E90260934403709345038093460390932D
:1024C000470381E691E00E94D6050E94E9026B0174
:1024D0007C014B015C013AE0830E911CA11CB11CF4
:1024E0000E94E9026C157D058E059F0528F0861671
:1024F0009706A806B906A0F781E0809358030E94CA
:10250000A0000E94600E0E94030EDC018D919C9140
:1025100090939202809391020E94030E87E190E0D3
:102520000E944F1A8C0185E290E00E944F1AEC0144
:1025300089E391E0998388831B821A821C8E8AE04A
:1025400090E098A38F8F19A21AA21BA21CA281E06F
:1025500090E00E944F1A2AE02093BA011092BC0129
:102560009E8F8D8FF89482E08093B0008093B100AD
:1025700094E69093B3001092B20080937000789428
:102580008093B9011092BD018091BA0160E00E9470
:102590005602F801D187C087128614861386168AE0
:1025A000158A0E94030EDC011496ED91FC9183E3E1
:1025B00093E3A3E3BFE382839383A483B58361E0C2
:1025C00082E10E94560262E081E10E9456020E946E
:1025D000E902672B682B692B09F4E3C00E94E9022A
:1025E00000918B0210918C0220918D0230918E020D
:1025F000601771078207930708F488C300918B0264
:1026000010918C0220918D0230918E026B017C0121
:10261000C01AD10AE20AF30A970186010A3F11059E
:102620002105310508F4C5C060938B0270938C02BC
:1026300080938D0290938E0284EF91E0A0E0B0E051
:102640008093500390935103A0935203B09353038C
:102650001092540310925503109256031092570390
:102660008091480390914903A0914A03B0914B0394
:1026700080934C0390934D03A0934E03B0934F036C
:102680000E94E902609348037093490380934A03D0
:1026900090934B030E94E9026093440370934503B7
:1026A00080934603909347030E94E9026B017C01EB
:1026B00082E791E00E94D6054AE061E070E080E0A8
:1026C00090E00E94710589E791E00E94D6054AE0FA
:1026D000C701B6010E9471058BE791E00E94D60503
:1026E0008091480390914903A0914A03B0914B0314
:1026F000A7019601281B390B4A0B5B0BCA01B901D4
:102700004AE00E9471058BE791E00E94D605609136
:1027100048037091490380914A0390914B030091C3
:102720004C0310914D0320914E0330914F03601BD9
:10273000710B820B930B4AE00E9471058DE791E0CB
:102740000E94D6050E94E9024AE00E9471058FE7C7
:1027500091E00E9464058EE591E00E9464050E946C
:10276000E9026B017C014B015C0135E0830E911C99
:10277000A11CB11C0E94E9026C157D058E059F0508
:1027800028F086169706A806B906A0F70E94E90267
:10279000609348037093490380934A0390934B03DB
:1027A00008C00E94E902623071058105910508F0B8
:1027B00015CF0E94030EDC011296ED91FC9180E092
:1027C00090E0A0E2B1E482839383A483B5830E9466
:1027D000030EDC01ED91FC9180E090E0AEEBB2E401
:1027E00082839383A483B583812C912C20E8A22E2D
:1027F0002FE3B22E01E090E0292E90E0392E11E077
:1028000081E10E94FF0120918F0230919002892B7B
:1028100009F085C22F5F3F4F3093900220938F02C3
:102820006091000182E10E9428020E94600EEC018A
:1028300088819981DC01ED91FC910190F081E02D7E
:1028400009958A819B81DC01ED91FC910190F081D9
:10285000E02D09958C819D81DC01ED91FC91019029
:10286000F081E02D09958E819F81DC01ED91FC9135
:102870000190F081E02D099588859985DC01ED9125
:10288000FC910190F081E02D09950E94E9020E94DF
:10289000A8166B017C01C092A102D092A202E09224
:1028A000A302F092A40220E030E0A90160919D0211
:1028B00070919E0280919F029091A0020E94A316A7
:1028C000811108C0C0929D02D0929E02E0929F02A8
:1028D000F092A00220E030E0A9016091990270918D
:1028E0009A0280919B0290919C020E94A3168111F2
:1028F00008C0C0929902D0929A02E0929B02F09294
:102900009C022091990230919A0240919B02509131
:102910009C02C701B6010E944B186B017C0120E0AC
:1029200030E44CE156E40E94A31687FDE3C120E0A9
:1029300030EC48E256E4C701B6010E94A719181608
:1029400054F50E94600E20910001222309F4F4C185
:10295000DC011696ED91FC9144805580668077806D
:1029600023E333E343E35FE3C301B2010E94A7190A
:10297000181614F41093980280919802882359F045
:102980002AE939E949E95EE3C301B2010E94A316CD
:1029900087FD1093970220E030E64AE656E4C7012F
:1029A000B6010E94A719181674F40E94030EDC01E8
:1029B0001296ED91FC9120E030E048EC52E4228345
:1029C00033834483558320E030E545E756E4C7016F
:1029D000B6010E94A7191816BCF40E94030EDC0170
:1029E000ED91FC9120E030E04EEB52E42283338302
:1029F000448355830E94030EDC011496ED91FC91F3
:102A000082829382A482B58220E038E742E856E4CD
:102A1000C701B6010E94A7191816DCF40E94030E24
:102A2000DC011496ED91FC9120E030E040E85FEB92
:102A300022833383448355830E94030EDC01ED918E
:102A4000FC9120E030E046EE52E42283338344835D
:102A5000558320E038E44AE856E4C701B6010E94F5
:102A6000A7191816BCF40E94030EDC011496ED9110
:102A7000FC9182829382A482B5820E94030EDC01C3
:102A8000ED91FC9120E030E04EEB52E42283338361
:102A90004483558320E038E142E956E4C701B6019A
:102AA0000E94A7191816DCF40E94030EDC0114968C
:102AB000ED91FC9120E030E040E85FEB228333832E
:102AC000448355830E94030EDC01ED91FC9120E0CC
:102AD00030E046EE52E4228333834483558320E082
:102AE00038EE49E956E4C701B6010E94A719181645
:102AF000BCF40E94030EDC011496ED91FC918282DD
:102B00009382A482B5820E94030EDC01ED91FC91B8
:102B100020E030E04EEB52E422833383448355833C
:102B200020E038EB41EA56E4C701B6010E94A7193C
:102B30001816DCF40E94030EDC011496ED91FC9152
:102B400020E030E040E85FEB228333834483558309
:102B50000E94030EDC01ED91FC9120E030E046EE96
:102B600052E4228333834483558320E038E849EAE2
:102B700056E4C701B6010E94A7191816BCF40E94BA
:102B8000030EDC011496ED91FC9182829382A48263
:102B9000B5820E94030EDC01ED91FC9120E030E053
:102BA0004EEB52E4228333834483558320E038E59F
:102BB00041EB56E4C701B6010E94A7191816CCF4E0
:102BC0000E94030EDC011496ED91FC9182829382A7
:102BD000A482B5820E94030EDC01ED91FC91C12C10
:102BE000D12C86EEE82E82E4F82EC282D382E482D3
:102BF000F58280919702882309F45EC00E94600EDE
:102C0000DC011496ED91FC91C480D580E680F780BC
:102C10000E94600EDC011696ED91FC9124813581B5
:102C200046815781C701B6010E944B186B017C0198
:102C30002091930230919402409195025091960216
:102C40000E944B182DEC3CEC4CE45EE30E9409170B
:102C50002B013C012AE939E949E15EE3C701B601EC
:102C60000E9409179B01AC01C301B2010E944C18DC
:102C7000C0929302D0929402E0929502F092960252
:102C80000E943A18C0919102D09192022BED3FE040
:102C900049E450E40E94B81820E030E044E353E4F3
:102CA0000E94091720E030E040EA50E40E944C18EE
:102CB0006A837B838C839D830E94030EEC01888151
:102CC0009981DC01ED91FC910190F081E02D099555
:102CD0008A819B81DC01ED91FC910190F081E02DD6
:102CE00009958C819D81DC01ED91FC910190F08131
:102CF000E02D09952114310409F482CD0E9433019D
:102D0000882309F47DCD0E94000074CD60938B026E
:102D100070938C0280938D0290938E026FCC26303C
:102D200031052CF0809100018027809300011092E2
:102D3000900210928F0274CD0E94600EDC011496F6
:102D4000ED91FC9109CE0E94E51608F481E008950A
:102D5000E89409C097FB3EF4909580957095619535
:102D60007F4F8F4F9F4F9923A9F0F92F96E9BB27EB
:102D70009395F695879577956795B795F111F8CF67
:102D8000FAF4BB0F11F460FF1BC06F5F7F4F8F4FD2
:102D90009F4F16C0882311F096E911C0772321F0C8
:102DA0009EE8872F762F05C0662371F096E8862F60
:102DB00070E060E02AF09A95660F771F881FDAF7B7
:102DC000880F9695879597F90895990F0008550FE4
:102DD000AA0BE0E8FEEF16161706E807F907C0F0A1
:102DE00012161306E407F50798F0621B730B840BA9
:102DF000950B39F40A2661F0232B242B252B21F483
:102E000008950A2609F4A140A6958FEF811D811D22
:102E100008950E941C170C948D170E947F1738F09C
:102E20000E94861720F0952311F00C9476170C94CD
:102E30007C1711240C94C1170E949E1770F3959F64
:102E4000C1F3950F50E0551F629FF001729FBB27A1
:102E5000F00DB11D639FAA27F00DB11DAA1F649F3D
:102E60006627B00DA11D661F829F2227B00DA11DF0
:102E7000621F739FB00DA11D621F839FA00D611D76
:102E8000221F749F3327A00D611D231F849F600D97
:102E9000211D822F762F6A2F11249F5750409AF0C0
:102EA000F1F088234AF0EE0FFF1FBB1F661F771F4C
:102EB000881F91505040A9F79E3F510580F00C9417
:102EC00076170C94C1175F3FE4F3983ED4F38695D0
:102ED00077956795B795F795E7959F5FC1F7FE2BB7
:102EE000880F911D9695879597F9089597F99F6793
:102EF00080E870E060E008959FEF80EC0895002482
:102F00000A941616170618060906089500240A944E
:102F100012161306140605060895092E0394000CD4
:102F200011F4882352F0BB0F40F4BF2B11F460FF63
:102F300004C06F5F7F4F8F4F9F4F089557FD90588C
:102F4000440F551F59F05F3F71F04795880F97FB6D
:102F5000991F61F09F3F79F0879508951216130627
:102F60001406551FF2CF4695F1DF08C01616170656
:102F70001806991FF1CF869571056105089408958B
:102F8000E894BB2766277727CB0197F90895DB01E3
:102F90008F939F930E941818BF91AF91A29F800DAD
:102FA000911DA39F900DB29F900D11240895A1E251
:102FB0001A2EAA1BBB1BFD010DC0AA1FBB1FEE1FB3
:102FC000FF1FA217B307E407F50720F0A21BB30BFE
:102FD000E40BF50B661F771F881F991F1A9469F77A
:102FE00060957095809590959B01AC01BD01CF01D6
:102FF0000895052E97FB1EF400940E94101857FDAB
:1030000007D00E94D71707FC03D04EF40C94101879
:1030100050954095309521953F4F4F4F5F4F089504
:1030200090958095709561957F4F8F4F9F4F089534
:103030000E942B18A59F900DB49F900DA49F800D0A
:10304000911D11240895B7FF0C9418180E941818A8
:10305000821B930B0895A29FB001B39FC001A39F51
:10306000700D811D1124911DB29F700D811D1124C1
:10307000911D08959F939F770E9460190F900020E3
:1030800042F49058A2EA2AED3FE049E450E40E945D
:1030900063180C948D175058BB27AA270E946318F9
:1030A0000C948D170E947F1738F00E94861720F02D
:1030B00039F49F3F19F426F40C947C170EF4E09534
:1030C000E7FB0C947617E92F0E949E1758F3BA1766
:1030D000620773078407950720F079F4A6F50C942E
:1030E000C0170EF4E0950B2EBA2FA02D0B01B901DD
:1030F00090010C01CA01A0011124FF27591B99F06E
:10310000593F50F4503E68F11A16F040A22F232F79
:10311000342F4427585FF3CF469537952795A795C9
:10312000F0405395C9F77EF41F16BA0B620B730B70
:10313000840BBAF09150A1F0FF0FBB1F661F771FE1
:10314000881FC2F70EC0BA0F621F731F841F48F496
:10315000879577956795B795F7959E3F08F0B0CF1F
:103160009395880F08F09927EE0F97958795089506
:103170000E94CC180C948D170E94861758F00E945C
:103180007F1740F029F45F3F29F00C947617511116
:103190000C94C1170C947C170E949E1768F3992316
:1031A000B1F3552391F3951B550BBB27AA27621743
:1031B0007307840738F09F5F5F4F220F331F441F50
:1031C000AA1FA9F335D00E2E3AF0E0E832D0915084
:1031D0005040E695001CCAF72BD0FE2F29D0660F71
:1031E000771F881FBB1F261737074807AB07B0E8B4
:1031F00009F0BB0B802DBF01FF2793585F4F3AF0BA
:103200009E3F510578F00C9476170C94C1175F3FE0
:10321000E4F3983ED4F3869577956795B795F7953F
:103220009F5FC9F7880F911D9695879597F9089527
:10323000E1E0660F771F881FBB1F621773078407C3
:10324000BA0720F0621B730B840BBA0BEE1F88F7D2
:10325000E09508950E9431196894B1110C94C1173A
:1032600008950E94A61788F09F5798F0B92F9927C4
:10327000B751B0F0E1F0660F771F881F991F1AF061
:10328000BA95C9F714C0B13091F00E94C017B1E0EF
:1032900008950C94C017672F782F8827B85F39F0EE
:1032A000B93FCCF3869577956795B395D9F73EF4FA
:1032B00090958095709561957F4F8F4F9F4F0895A2
:1032C000DF93CF931F930F938B01EC01E8E6F0E0BF
:1032D0000E9480190E948D179801AE018B01EC01AC
:1032E00060E070E080E89FE30E944B180E94B219F2
:1032F0009801AE010F911F91CF91DF910C941C1793
:10330000DF93CF931F930F93FF92EF92DF927B0196
:103310008C01689406C0DA2EEF010E941C17FE0192
:10332000E894A5912591359145915591A6F3EF012A
:103330000E946318FE019701A801DA9469F7DF90F3
:10334000EF90FF900F911F91CF91DF9108950E9410
:10335000E51608F48FEF089519F416F40C947C1711
:103360000C94F2190E94A617B8F39923C9F3B6F387
:103370009F57550B87FF0E94001A0024A0E640EAE1
:10338000900180585695979528F4805C660F771FBA
:10339000881F20F026173707480730F4621B730B8D
:1033A000840B202931294A2BA695179407942025B0
:1033B00031254A2758F7660F771F881F20F02617F8
:1033C0003707480730F4620B730B840B200D311D57
:1033D000411DA09581F7B901842F9158880F9695CA
:1033E000879508959F3F31F0915020F48795779508
:1033F0006795B795880F911D9695879597F90895CC
:1034000091505040660F771F881FD2F70895991B7F
:1034100079E004C0991F961708F0961B881F7A95CB
:10342000C9F780950895002E083090F0982F872FC7
:10343000762F652F542F432F322F22270850F4CF99
:10344000220F331F441F551F661F771F881F991FA8
:103450000A95B2F7002D089597FD1094002E0830BC
:1034600098F00850232F342F452F562F672F782F91
:10347000892F912DF4CF159497958795779567951A
:1034800057954795379527950A95AAF71124002D4A
:103490000895EE0FFF1F0590F491E02D09940F930E
:1034A0001F93CF93DF938230910510F482E090E078
:1034B000E0918A03F0918B0330E020E0B0E0A0E0DF
:1034C000309799F42115310509F44AC0281B390BAE
:1034D00024303105D8F58A819B816115710589F108
:1034E000FB0193838283FE0111C0408151810281DF
:1034F000138148175907E0F04817590799F41097B6
:1035000061F012960C93129713961C933296CF018A
:10351000DF91CF911F910F91089500938A0310932B
:103520008B03F4CF2115310551F04217530738F0C2
:10353000A901DB019A01BD01DF01F801C1CFEF0153
:10354000F9CF90938B0380938A03CDCFFE01E20FD6
:10355000F31F819391932250310939832883D7CF68
:103560002091880330918903232B41F4209103019A
:103570003091040130938903209388032091010145
:10358000309102012115310541F42DB73EB740912C
:10359000050150910601241B350BE0918803F09141
:1035A0008903E217F307A0F42E1B3F0B28173907F6
:1035B00078F0AC014E5F5F4F2417350748F04E0F8F
:1035C0005F1F5093890340938803819391939FCF0A
:1035D000F0E0E0E09CCFCF93DF930097E9F0FC01AF
:1035E000329713821282A0918A03B0918B03ED016E
:1035F00030E020E01097A1F420813181820F931FE9
:1036000020918803309189032817390709F061C098
:10361000F0938903E0938803DF91CF910895EA0145
:10362000CE17DF07E8F54A815B819E014115510500
:10363000B1F7E901FB83EA8349915991C40FD51F82
:10364000EC17FD0761F4808191810296840F951F2C
:10365000E90199838883828193819B838A83F0E047
:10366000E0E012968D919C9113970097B9F52D91FA
:103670003C911197CD010296820F931F20918803F0
:10368000309189032817390739F6309751F5109290
:103690008B0310928A03B0938903A0938803BCCF55
:1036A000D383C28340815181840F951FC817D907E6
:1036B00061F44E5F5F4F88819981480F591F518394
:1036C00040838A819B81938382832115310509F090
:1036D000B0CFF0938B03E0938A039ECFFD01DC0112
:0C36E000C0CF13821282D7CFF894FFCF26
:1036EC000100008C03800000000000E203D103AE57
:1036FC000300000000F5000000000056050000006B
:10370C0000240500000000DD0C000000009F0400F8
:10371C00000000F40300000000E205000000006956
:10372C0001C800F600B601270105011901526563B5
:10373C00656976656420646174613A0020000D0A45
:10374C0000564D4450565F317C315F564D445056B7
:10375C000A00564D4450455F003A323A007C005FF7
:06376C00564D44504500DB
:107800000C94343C0C94513C0C94513C0C94513CE1
:107810000C94513C0C94513C0C94513C0C94513CB4
:107820000C94513C0C94513C0C94513C0C94513CA4
:107830000C94513C0C94513C0C94513C0C94513C94
:107840000C94513C0C94513C0C94513C0C94513C84
:107850000C94513C0C94513C0C94513C0C94513C74
:107860000C94513C0C94513C11241FBECFEFD8E036
:10787000DEBFCDBF11E0A0E0B1E0ECE9FFE702C060
:1078800005900D92A230B107D9F712E0A2E0B1E065
:1078900001C01D92AD30B107E1F70E942D3D0C945F
:1078A000CC3F0C94003C982F959595959595959582
:1078B000905D8F708A307CF0282F295A8091C0000B
:1078C00085FFFCCF9093C6008091C00085FFFCCF60
:1078D0002093C6000895282F205DF0CF982F809127
:1078E000C00085FFFCCF9093C6000895EF92FF92F1
:1078F0000F931F93EE24FF2487018091C00087FD22
:1079000017C00894E11CF11C011D111D81E4E8164B
:1079100082E4F8068FE0080780E0180770F3E09132
:107920000401F091050109958091C00087FFE9CF1E
:107930008091C6001F910F91FF90EF9008950E94D3
:10794000763C982F8091C00085FFFCCF9093C600B5
:1079500091362CF490330CF09053892F089597555D
:10796000892F08951F930E949F3C182F0E949F3CCF
:107970001295107F810F1F9108951F93182F882350
:1079800021F00E94763C1150E1F71F9108951F935A
:10799000182F0E94763C803249F0809103018F5F5E
:1079A000809303018530C1F01F9108958091C0003C
:1079B00085FFFCCF84E18093C6008091C00085FFE5
:1079C000FCCF1093C6008091C00085FFFCCF80E102
:1079D0008093C6001F910895E0910401F091050184
:1079E00009951F9108950E94763C803241F0809164
:1079F00003018F5F80930301853081F008958091AA
:107A0000C00085FFFCCF84E18093C6008091C00058
:107A100085FFFCCF80E18093C6000895E0910401CA
:107A2000F09105010995089540E951E08823A1F0FE
:107A30002D9A28EE33E0FA013197F1F721503040CA
:107A4000D1F72D9828EE33E0FA013197F1F7215064
:107A50003040D1F7815061F708953F924F925F9285
:107A60006F927F928F929F92AF92BF92CF92DF924E
:107A7000EF92FF920F931F93CF93DF93000080E16B
:107A80008093C4001092C50088E18093C10086E015
:107A90008093C2005098589A259A81E00E94143D24
:107AA00024E1F22E9EE1E92E85E9D82E0FE0C02ECA
:107AB00010E1B12EAA24A394B1E49B2EA6E58A2E50
:107AC000F2E57F2EE0E26E2E79E4572E63E5462E36
:107AD00050E5352E0E94763C8033B1F18133B9F107
:107AE000803409F46FC0813409F476C0823409F41B
:107AF00085C0853409F488C0803531F1823521F1A3
:107B0000813511F1853509F485C0863509F48DC0BC
:107B1000843609F496C0843709F403C1853709F423
:107B200072C1863709F466C0809103018F5F80932C
:107B30000301853079F6E0910401F0910501099582
:107B40000E94763C803351F60E94F33CC3CF0E94E2
:107B5000763C803249F78091C00085FFFCCFF092DF
:107B6000C6008091C00085FFFCCF9092C600809136
:107B7000C00085FFFCCF8092C6008091C00085FFC9
:107B8000FCCF7092C6008091C00085FFFCCF609250
:107B9000C6008091C00085FFFCCF5092C600809146
:107BA000C00085FFFCCF4092C6008091C00085FFD9
:107BB000FCCF3092C6008091C00085FFFCCFB09210
:107BC000C60088CF0E94763C863808F4BDCF0E945C
:107BD000763C0E94F33C7ECF0E94763C803809F4CC
:107BE0009CC0813809F40BC1823809F43CC1883942
:107BF00009F48FC080E00E94C73C6CCF84E10E94F2
:107C0000BD3C0E94F33C66CF85E00E94BD3C0E94D3
:107C1000F33C60CF0E94763C809306010E94763C44
:107C2000809307010E94F33C55CF0E94763C80333D
:107C300009F41DC183E00E94BD3C80E00E94C73C66
:107C400049CF0E94763C809309020E94763C809343
:107C5000080280910C028E7F80930C020E94763C79
:107C6000853409F415C18091080290910902892B8D
:107C700089F000E010E00E94763CF801E85FFE4FDA
:107C800080830F5F1F4F80910802909109020817AF
:107C9000190788F30E94763C803209F045CF809125
:107CA0000C0280FF01C16091060170910701660F0F
:107CB000771F7093070160930601A0910802B091AD
:107CC00009021097C9F0E8E0F1E09B01AD014E0F09
:107CD0005F1FF999FECF32BD21BD819180BDFA9A17
:107CE000F99A2F5F3F4FE417F50799F76A0F7B1F4B
:107CF00070930701609306018091C00085FFFCCF5F
:107D0000F092C6008091C00085FFFCCFB092C60003
:107D1000E1CE83E00E94C73CDDCE82E00E94C73CFA
:107D2000D9CE0E94763C809309020E94763C8093D3
:107D300008028091060190910701880F991F909386
:107D40000701809306010E94763C853409F4A6C0A1
:107D500080910C028E7F80930C020E94763C8032D0
:107D600009F0B8CE8091C00085FFFCCFF092C6002C
:107D7000609108027091090261157105B9F140E046
:107D800050E080910C02A82FA170B82FB27011C0E2
:107D9000BB2309F45CC0E0910601F0910701319624
:107DA000F0930701E09306014F5F5F4F46175707B7
:107DB000E8F4AA2369F3F999FECF209106013091E6
:107DC000070132BD21BDF89A90B58091C00085FFB2
:107DD000FCCF9093C6002F5F3F4F30930701209355
:107DE00006014F5F5F4F4617570718F38091C00099
:107DF00085FDE5CE8091C00085FFF8CFE0CE81E023
:107E00000E94C73C67CE0E94763C803209F08CCE3F
:107E10008091C00085FFFCCFF092C6008091C00029
:107E200085FFFCCFE092C6008091C00085FFFCCFAB
:107E3000D092C6008091C00085FFFCCFC092C600E2
:107E40008091C00085FFFCCFB092C60043CEE09188
:107E50000601F091070194918091C00085FFFCCF4D
:107E60009093C6009CCF80E10E94C73C33CE0E9415
:107E7000763C0E94763C182F0E94763C112309F430
:107E800083C0113009F484C08FE00E94C73C22CE29
:107E900080910C02816080930C02E5CE80910C02EF
:107EA000816080930C0259CF809107018823880F4D
:107EB000880B8A2180930B02809106019091070123
:107EC000880F991F90930701809306018091080203
:107ED00080FF09C080910802909109020196909359
:107EE000090280930802F894F999FECF1127E091D6
:107EF0000601F0910701C8E0D1E08091080290915D
:107F00000902103091F40091570001700130D9F34B
:107F100003E000935700E89500915700017001308D
:107F2000D9F301E100935700E89509901990009169
:107F3000570001700130D9F301E000935700E89534
:107F40001395103498F011270091570001700130FB
:107F5000D9F305E000935700E895009157000170B0
:107F60000130D9F301E100935700E895329602976A
:107F700009F0C7CF103011F00296E5CF112480919F
:107F8000C00085FFB9CEBCCE8EE10E94C73CA2CD19
:0C7F900085E90E94C73C9ECDF894FFCF0D
:027F9C00800063
:040000030000780081
:00000001FF