:100000000C9462000C948A000C948A000C948A0070
:100010000C948A000C948A000C948A000C947C0F37
:100020000C948A000C948A000C948A000C94C00EE4
:100030000C948A000C948A000C948A000C948A0018
:100040000C94760E0C948A000C94440E0C941E0EA4
:100050000C948A000C948A000C948A000C948A00F8
:100060000C948A000C948A000000000024002700F1
:100070002A0000000000250028002B0000000008D6
:10008000000201000003040700000000000000005F
:1000900000000000230026002900040404040404D6
:1000A0000404020202020202030303030303010227
:1000B00004081020408001020408102001020408F6
:1000C00010207D1011241FBECFEFD8E0DEBFCDBFC2
:1000D00011E0A0E0B1E0E2E2FEE202C005900D9284
:1000E000A039B107D9F723E0A0E9B1E001C01D9222
:1000F000A438B207E1F710E0C2E6D0E004C02197CF
:10010000FE010E94E415C136D107C9F70E94BC1058
:100110000C940F170C940000EDE9F2E0A089B1896E
:1001200082E08C93A485B5851C92A685B78580E175
:100130008C93108EA489B58986E08C93A289B389AB
:100140008C9180618C93A289B3898C9188608C9307
:10015000A289B3898C9180688C930288F389E02D01
:1001600080818F7D80830895AF92BF92CF92DF927E
:10017000EF92FF920F931F93CF93DF936C017B015C
:100180008B01040F151FEB015E01AE18BF08C017ED
:10019000D10759F06991D601ED91FC910190F08160
:1001A000E02DC6010995892B79F7C501DF91CF9123
:1001B0001F910F91FF90EF90DF90CF90BF90AF9085
:1001C0000895FC01538D448D252F30E0842F90E05D
:1001D000821B930B541710F0CF9608950197089542
:1001E000FC01918D828D981761F0A28DAE0FBF2F0B
:1001F000B11D5D968C91928D9F5F9F73928F90E061
:1002000008958FEF9FEF0895FC01918D828D9817CF
:1002100031F0828DE80FF11D858D90E008958FEF0C
:100220009FEF0895FC01918D228D892F90E0805CD5
:100230009F4F821B91098F73992708958DE992E052
:100240000E94120121E0892B09F420E0822F0895F9
:1002500080E090E0892B29F00E941E0181110C940E
:1002600000000895FC01A48DA80FB92FB11DA35A59
:10027000BF4F2C91848D90E001968F739927848FC6
:10028000A689B7892C93A089B1898C9183708064E9
:100290008C93938D848D981306C00288F389E02D8A
:1002A00080818F7D80830895EF92FF920F931F933B
:1002B000CF93DF93EC0181E0888F9B8D8C8D981319
:1002C0001AC0E889F989808185FF15C09FB7F89425
:1002D000EE89FF896083E889F98980818370806471
:1002E00080839FBF81E090E0DF91CF911F910F91BC
:1002F000FF90EF900895F62E0B8D10E00F5F1F4FCB
:100300000F731127E02E8C8D8E110CC00FB607FCD9
:10031000FACFE889F989808185FFF5CFCE010E9467
:100320003201F1CFEB8DEC0FFD2FF11DE35AFF4FA2
:10033000F0829FB7F8940B8FEA89FB8980818062F5
:10034000CFCFCF93DF93EC01888D8823B9F0AA89B2
:10035000BB89E889F9898C9185FD03C0808186FD80
:100360000DC00FB607FCF7CF8C9185FFF2CF8081CF
:1003700085FFEDCFCE010E943201E9CFDF91CF9111
:100380000895833081F028F4813099F08230A9F00B
:1003900008958730A9F08830C9F08430B1F4809195
:1003A00080008F7D03C0809180008F7780938000D4
:1003B000089584B58F7784BD089584B58F7DFBCF74
:1003C0008091B0008F778093B00008958091B00045
:1003D0008F7DF9CFCF93DF93282F30E0F901E458D8
:1003E000FF4F8491F901E255FF4FD491F901E65690
:1003F000FF4FC491CC23A1F081110E94C101EC2FC9
:10040000F0E0EE0FFF1FE057FF4FA591B491EC9184
:10041000ED2381E090E009F480E0DF91CF91089531
:1004200080E090E0FACF1F93CF93DF93282F30E046
:10043000F901E458FF4F8491F901E255FF4FD4913F
:10044000F901E656FF4FC491CC23A9F0162F811174
:100450000E94C101EC2FF0E0EE0FFF1FEE58FF4F9E
:10046000A591B4918FB7F894EC91111108C0D09573
:10047000DE23DC938FBFDF91CF911F910895DE2B98
:10048000F8CFCF93DF9390E0FC01E255FF4F24912A
:1004900086569F4FFC0184918823D1F090E0880F0D
:1004A000991FFC01E859FF4FA591B491FC01EE584A
:1004B000FF4FC591D49161110EC09FB7F8948C91F4
:1004C000E22FE0958E238C932881E223E8839FBF5F
:1004D000DF91CF9108958FB7F894EC91E22BEC93D4
:1004E0008FBFF6CF3FB7F8948091BF019091C001C4
:1004F000A091C101B091C20126B5A89B05C02F3FB4
:1005000019F00196A11DB11D3FBFBA2FA92F982F39
:100510008827BC01CD01620F711D811D911D42E034
:10052000660F771F881F991F4A95D1F708958F92FC
:100530009F92AF92BF92CF92DF92EF92FF924B01C8
:100540005C010E9472026B017C010E9472026C19B4
:100550007D098E099F09683E734081059105A8F3C6
:1005600021E0821A9108A108B10888EEC80E83E044
:10057000D81EE11CF11C81149104A104B10429F7D7
:10058000FF90EF90DF90CF90BF90AF909F908F90B3
:1005900008952FB7F8946091BB017091BC018091D0
:1005A000BD019091BE012FBF0895CF92DF92EF92CF
:1005B000FF92CF93DF93EC01072E000C880B990B71
:1005C0000E94FD126B017C0120E030E040E45FE31B
:1005D0000E945C1320E030E048E452E40E94FA14E8
:1005E0000E946C15C617D707D4F020E030E040EA2F
:1005F0005FE3C701B6010E945C1320E030E048E4ED
:1006000052E40E94FA1420E030E040E85FE30E94E8
:100610008E140E946C1521E06C177D070CF420E00D
:10062000822F90E0DF91CF91FF90EF90DF90CF90FD
:1006300008958F929F92AF92BF92CF92DF92EF92E6
:10064000FF920F931F93CF93DF93DB01ED91FC910A
:10065000EC01AC85BD8501E010E0EA17FB070CF06A
:1006600045C0EF01CC0FDD1FDC011A968D919C91E6
:10067000DC01AC0FBD1FAD90BC908F0100951095B3
:10068000017011278CE99FEFE0FF02C084E690E043
:10069000E9016A017B014C01820E931EB401C50180
:1006A0000E94D50221E030E0892BB9F48C0E9D1E0A
:1006B000B401C5010E94D50222E030E0892B69F423
:1006C000BE01680D791DC5010E94D50223E030E00E
:1006D000892B19F40FEF1FEF09C0E601888199817A
:1006E00001968217930784F499838883C801DF9168
:1006F000CF911F910F91FF90EF90DF90CF90BF901F
:10070000AF909F908F90089519821882D7018D9194
:100710009C91119701968D939C93E8CF0F931F9313
:10072000CF93DF93EC01EE85FF85309709F00995B3
:100730000E94C9026E837F83888799870A811B8103
:100740002C813D81DC01CB01800F911FA21FB31FC3
:100750008A879B87AC87BD87DF91CF911F910F91CF
:1007600008950F931F93FC01028513852485358519
:10077000401B510B620B730B80E077FF80891F9148
:100780000F910895FC0142835383648375838681AE
:100790009781A085B185840F951FA61FB71F8287FB
:1007A0009387A487B5870895CF92DF92EF92FF9247
:1007B000CF93DF93FC01C681D781628173818481ED
:1007C00095810E946C159B016032F2E07F07CCF5A9
:1007D0002981E8E8CE2ED12CC21AD10827FDD39466
:1007E000CC0CDD1CCC0CDD1C0D2C000CEE08FF0825
:1007F0004A8128E532E0241B310947FD3395220F59
:10080000331F220F331F032E000C440B550B2C19E2
:100810003D094E095F09DB01653B710514F0A4EB4E
:10082000B0E0B7FF02C0B0E0A0E00E94761424EB75
:1008300030E040E050E00E944C142C0D3D1D4E1D58
:100840005F1DE881EC3070F5498188E890E0841BF9
:10085000910947FD9395880F991F880F991F2817B5
:1008600039077CF04A8188E592E0841B910947FDB5
:100870009395880F991F880F991F281739070CF433
:10088000C9010297880F991F4FB7F8942E2F30E0B7
:10089000F901EE0FFF1FE20FF31FEC56FE4F92839C
:1008A00081834FBFDF91CF91FF90EF90DF90CF908A
:1008B0000895CF93DF93EC018A818E3008F08E503B
:1008C0008770806480937C0080917A00806480933C
:1008D0007A0080917A0086FDFCCF8091780060914B
:1008E0007900762F682F072E000C880B990B0E9439
:1008F000FD1220E030E040E85AE30E945C136C8374
:100900007D838E839F83DF91CF910895CF93DF9373
:10091000EC018A810E94EA0121E0019709F020E0C0
:100920002C83DF91CF91089562E370E080E090E046
:100930000C949702FC0101900020E9F73197AF0178
:10094000481B590BBC018DE992E00C94B4008F92C6
:100950009F92AF92BF920F931F93CF93DF93CDB728
:10096000DEB7A1970FB6F894DEBF0FBECDBF19A2B8
:10097000423008F44AE08E010F5D1F4F842E912C07
:10098000B12CA12CA50194010E942A14E62FB901D3
:10099000CA01EA30F4F4E05DD801EE938D01232B17
:1009A000242B252B79F790E080E0109719F0CD01EA
:1009B0000E949A04A1960FB6F894DEBF0FBECDBF79
:1009C000DF91CF911F910F91BF90AF909F908F902B
:1009D0000895E95CE1CFCF92DF92EF92FF92CF933F
:1009E000DF936B017C016DE28DE992E00E9454017E
:1009F000EC0166277727CB016C197D098E099F09C9
:100A00004AE00E94A7048C0F9D1FDF91CF91FF90B9
:100A1000EF90DF90CF9008950C949A04CF93DF93DA
:100A2000BC01990F880B990B97FF0CC00E94EB0437
:100A3000EC0188E491E00E949A048C0F9D1FDF91E5
:100A4000CF9108954AE00E94A704F2CFBC01990F0C
:100A5000880B990B97FD0C94EB044AE00C94A704C7
:100A60002F923F924F925F926F927F928F929F92BE
:100A7000AF92BF92CF92DF92EF92FF920F931F93AC
:100A8000CF93DF93CDB7DEB728970FB6F894DEBFCC
:100A90000FBECDBFFC018AEC91E0978B868B8091D5
:100AA000C70190E0918F808F8091940290E0938FA6
:100AB000828F8091C301853009F0C7C37F01809187
:100AC000CC019091CD01885891098D35910508F0A0
:100AD0004CC08091C7018430E1F48091CE019091A7
:100AE000CF0180974797A8F48091D0019091D101D0
:100AF0000997099770F4158A148A8FEF9FEFDC012C
:100B0000808B918BA28BB38B83E090E09587848759
:100B100055C38091C701843440F18091CE019091FA
:100B2000CF01825491098E9700F530E020E080E0FB
:100B300090E0DC01F901E053FE4F408151814950C2
:100B400051094930510588F4F901EE52FE4F4081B8
:100B50005181475151094231510518F1408151816C
:100B6000465051094730510568F18091C7018A31DB
:100B700008F45CC08091CA019091CB01843F914000
:100B800030F5D70155961C921E9254978FEF9FEF28
:100B9000DC01F701808B918BA28BB38B8BE090E013
:100BA000B5CF880F991FAA1FBB1F81602C5F3F4FD5
:100BB0002038310509F0BECF20E230E0F701358B57
:100BC000248B9ECF880F991FAA1FBB1FEFCF809148
:100BD000CC019091CD0185974B9740F5E3ECF1E086
:100BE00082E090E040E050E0BA01DC0111962091F3
:100BF000C7012A171B0609F00CF401C123853485AF
:100C0000275031092730310508F0F8C02585368591
:100C1000235131092F30310508F4E3C0258536858D
:100C20002A5031092930310508F4E3C08091C70109
:100C30008A31F0F18091CA019091CB0180329340CA
:100C400008F49FCF8091CC019091CD01C6978697F3
:100C500078F58091CE019091CF01C697869740F5A7
:100C6000E3ECF1E083E090E040E050E0BA01DC0129
:100C700011962091C7012A171B0609F00CF4E4C055
:100C8000258536852C5031092B30310508F0DBC025
:100C900027853089255231092B31310508F4C6C02A
:100CA000278530892C5031092A30310508F4C6C017
:100CB0008091C701823238F18091CC019091CD01B1
:100CC0000697079700F5E3ECF1E082E090E040E062
:100CD00050E0BA01DC0111962091C7012A171B06CA
:100CE00009F00CF4DBC0238534852E5131092731FE
:100CF000310508F4BEC0238534852C5031092B30D2
:100D0000310508F4C5C08701045F1F4F1C821B8298
:100D100081E090E09A8389838091C7018D3008F447
:100D2000EAC029E733E0AE014D5F5F4FBE016F5F60
:100D30007F4FC8010E941903892B09F0DCC029E705
:100D400033E0AE014D5F5F4FBE016F5F7F4FC80163
:100D50000E941903019709F0CEC029E733E0AE01E4
:100D60004D5F5F4FBE016F5F7F4FC8010E94190347
:100D70006C01892B09F0BFC0412C512C320120910C
:100D8000C70189819A812817190609F00CF4A6C0B9
:100D900029E733E0AE014D5F5F4FBE016F5F7F4FCC
:100DA000C8010E9419035C0129E733E0AE014D5FE1
:100DB0005F4FBE016F5F7F4FC8010E941903F1E0D2
:100DC000AF16B10409F081C0892B09F094C0440C1E
:100DD000551C661C771C689440F82FEFC21AD20A83
:100DE000CECF440F551F661F771F41600296349681
:100DF000FCCE440F551F661F771FF8CFCD0101971A
:100E000095958795D70155969C938E9354970C97FB
:100E10002CF455961C921E92549708CFF701408BE4
:100E2000518B628B738B84E090E070CE440F551F22
:100E3000661F771F41600296349619CF440F551FE5
:100E4000661F771FF8CFCD01019795958795D7013C
:100E500055969C938E9354970C972CF455961C9210
:100E60001E92549725CFF701408B518B628B738B69
:100E700095CE440F551F661F771F41602585368527
:100E80003496235031092530310538F4029622CFAB
:100E9000440F551F661F771FF1CFCD010197959520
:100EA0008795D70155969C938E93549740972CF431
:100EB00055961C921E92549726CFF701408B518B6A
:100EC000628B738B8CE090E021CEAB28A1F401976C
:100ED00091F4440C551C661C771C7FCFD7015596A6
:100EE000DC92CE925497F701408A518A628A738AC3
:100EF00081E090E00BCE1C821B8281E090E09A831F
:100F00008983D70158968D919C9159971816190687
:100F10000CF08AC05696ED91FC9182E090E09A83A5
:100F200089838281938189974E9708F07DC083E001
:100F300090E09A838983848195810B970A9708F0C2
:100F400073C02CEB31E0AE014D5F5F4FBE016F5FB0
:100F50007F4FC8010E9419036C01892B09F064C0FE
:100F60002CEB31E0AE014D5F5F4FBE016F5F7F4FF5
:100F7000C8010E941903019709F056C0412C512C59
:100F80003201F701208D318D89819A818217930773
:100F90000CF0EBC02CEB31E0AE014D5F5F4FBE01BA
:100FA0006F5F7F4FC8010E9419034C01F3E0CF1619
:100FB000D10461F12CEB31E0AE014D5F5F4FBE011A
:100FC0006F5F7F4FC8010E9419035C0123E0C216C6
:100FD000D10471F42CEB31E0AE014D5F5F4FBE01E7
:100FE0006F5F7F4FC8010E941903A816B906E1F48C
:100FF0008114910409F4ABC08A948928A9F4AB2820
:1010000099F4440C551C661C771CABC02CEB31E0EA
:10101000AE014D5F5F4FBE016F5F7F4FC8010E9401
:1010200019038816990631F2D7015696ED91FC9175
:1010300082819381C697869778F5848195814B97B5
:10104000459750F5DF0116966F0126ECC20ED11CB4
:1010500020E030E040E050E060E070E080E090E0D0
:101060000D911C9111970950110908301105A0F438
:1010700012960D911C911397015111090D30110514
:1010800008F481C012960D911C9113970450110918
:101090000530110508F4F2C08091C701893380F151
:1010A00082819381895791098335910548F584811F
:1010B0009581CA97899720F59F012A5F3F4F812C20
:1010C000912C540143E050E0D9016D917C9111972E
:1010D0006A5071096930710598F412966D917C918E
:1010E0001397665171096131710508F4CBC01296EE
:1010F0006D917C91665071096730710508F4EDC0FF
:101100008091C701823209F0EDC0828193810A97F4
:10111000099708F0E7C0A091C701B0E0A150B0481E
:10112000AA0FBB1FAE0FBF1F8D919C910A97099705
:1011300008F0D8C0F701158A148A8FEF9FEFDC0101
:10114000808B918BA28BB38B86E090E0DFCCAA944E
:10115000AB2809F069CF440C551C661C771C6894B9
:1011600040F8BFEFCB1ADB0A0CCFD58AC48AD7016F
:10117000408A518A628A738A82E090E01D969C932D
:101180008E931C971BC001E00E94AE15216014963F
:10119000AC15BD0509F064CFF701208B318B428B74
:1011A000538B00E20E94C9152687378785E090E0BF
:1011B0009587848780E390E0958B848BF701848DFD
:1011C00081110AC380899189A289B3898F3F9F4F7A
:1011D000AF4FBF4F21F481E0D7015C968C93D701CC
:1011E0005C968C915C97833058F15C961C928BE4F2
:1011F00091E00E940C0587010C5F1F4F6701BCE066
:10120000CB0ED11C89E691E00E940C05F80161919A
:101210008F0170E090E080E04AE00E94A7040C1586
:101220001D0581F788E491E00E949A04D701129687
:101230008D919C911397019613969C938E93129780
:1012400082E08093C3011092C70128960FB6F894EC
:10125000DEBF0FBECDBFDF91CF911F910F91FF90E9
:10126000EF90DF90CF90BF90AF909F908F907F9046
:101270006F905F904F903F902F90089501E00E94F3
:10128000AE1585CFD501C401880F991FAA1FBB1FBA
:101290004C015D01689480F84E5F5F4F2C5F3F4FBB
:1012A0004B33510509F010CF9F012A583F4FD90108
:1012B0002D913C912A5031092930310508F020CF79
:1012C0002CE130E0F701358B248BD701808A918A9D
:1012D000A28AB38A8AE090E051CF880C991CAA1C9C
:1012E000BB1CDACF8281938189579109833591059F
:1012F00060F58091C701813240F184819581CA9760
:10130000899718F59F012A5F3F4F812C912C54013A
:1013100043E050E0D9016D917C9111976A507109B9
:101320006930710590F412966D917C911397665116
:1013300071096131710568F112966D917C91665069
:1013400071096730710508F44FC0828193818C5414
:101350009109C59708F07CC08091C701843009F0DD
:1013600048C0848195818097479708F042C0868164
:10137000978109970997E8F5F701158A148A8FEF85
:101380009FEFDC01808B918BA28BB38B87E090E089
:10139000BDCBD501C401880F991FAA1FBB1F4C01EB
:1013A0005D01689480F84E5F5F4F2C5F3F4F433282
:1013B000510509F0AFCF9F012A5B3F4FD9012D9115
:1013C0003C912A5031092930310508F0BECF20E187
:1013D00030E0F701358B248BD701808A918AA28A6D
:1013E000B38A86E090E0CACE880C991CAA1CBB1C6C
:1013F000DACF8091C701843458F184819581895472
:101400009109C39728F59F012A5F3F4FAF014A57C3
:101410005F4F812C912C5401D9016D917C911197D2
:10142000695071096930710598F412966D917C913B
:101430001397665171096131710508F4A0C01296C5
:101440006D917C91665071096730710508F4B4C0E4
:101450008091C7018634C0F1828193810C970B97EC
:1014600098F5848195810997099770F58681978110
:101470008C974F9748F58085918589974D9720F5F2
:101480009F01265F3F4F812C912C540145E050E095
:10149000D9016D917C9111976C5071096B30710578
:1014A00098F412966D917C9113976E517109673182
:1014B000710508F486C012966D917C91695071098E
:1014C0006930710508F4A8C08091C701883508F417
:1014D000B2C082819381855891098B35910508F0BE
:1014E000AAC084819581825491098E9708F0A3C087
:1014F0008F01045C1F4F8DE190E030E020E04091CF
:10150000C7014450550B8417950714F5A8014250A4
:101510005109DA014D915C9149505109483051050A
:1015200008F089C0BC016F5F7F4FD8014D915C917D
:101530001197475051094730510508F472C04D9139
:101540005C91485151094231510508F471C0CB01F9
:10155000019795958795D70155969C938E935497AF
:101560008A970CF468C0C901330FAA0BBB0BF701B3
:10157000808B918BA28BB38B89E090E0C7CAD50199
:10158000C401880F991FAA1FBB1F4C015D016894FD
:1015900080F82C5F3F4F4217530709F03DCF20E200
:1015A00030E0F701358B248BD701808A918AA28A9B
:1015B000B38A87E090E0E2CD880C991CAA1CBB1C82
:1015C000E8CFD501C401880F991FAA1FBB1F4C018A
:1015D0005D01689480F84E5F5F4F2C5F3F4F45344C
:1015E000510509F055CF9F0126573F4FD9012D9145
:1015F0003C912C5031092B30310508F065CF20E2A9
:1016000030E0F701358B248BD701808A918AA28A3A
:10161000B38A88E090E0B2CD880C991CAA1CBB1C50
:10162000DACF220F331F216002960C5F1F4F67CF66
:10163000220F331FF9CF8091C701803279F5828163
:1016400093810697069750F58481958109970997AC
:1016500028F59F012A5F3F4FAF01425C5F4F812C0D
:10166000912C5401D9016D917C91119766507109AB
:101670006630710598F412966D917C9113976951BB
:1016800071096331710508F485C012966D917C91E2
:10169000695071096930710508F499C0D7015896ED
:1016A0002D903C90B6E02B1631040CF4C9CD8F017F
:1016B0000E5F1F4F85EC882E8DE9982E8CE1A82EA9
:1016C00081E8B82E93E0C92ED12CF8016481758190
:1016D0006080718090E080E00E94FB126D837E83C9
:1016E0008F839887B30190E080E00E94FB122B016A
:1016F0003C012DEC3CEC4CE45FE30E945C139B014D
:10170000AC016D817E818F8198850E94F612F0E098
:10171000E0E087FD16C02DEC3CEC4CE45FE36D810E
:101720007E818F8198850E945C139B01AC01C3016F
:10173000B2010E94F612E2E0F0E087FD02C0E1E0B3
:10174000F0E0A501940163E971E080E091E00E947E
:101750001A144F01FF0FAA08BB0886269726A82651
:10176000B926FFEFCF1ADF0A0E5F1F4F2C143D047E
:1017700009F0ABCFD70150968D929D92AD92BC925D
:10178000539780E290E055969C938E9354978FEFF9
:101790009FEFF4CCD501C401880F991FAA1FBB1F6E
:1017A0004C015D01689480F82C5F3F4F241735078A
:1017B00009F058CF2EE030E0F701358B248BD701AC
:1017C000808A918AA28AB38A8FE090E0D7CC880C75
:1017D000991CAA1CBB1CE8CF813061F49089218937
:1017E0003289438944833583268397838F5FF7014A
:1017F000848FF5CC8230D1F7908921893289438951
:101800004087318722879387F1CF0F931F9390E012
:10181000FC01E255FF4F6491FC01E656FF4FE49155
:10182000F0E0EE0FFF1FE057FF4F8591949100E429
:1018300012E42FE030E040E00E943810611571059D
:101840008105910529F06F5F7F4F8F4F9F4F9F70EC
:101850001F910F910895CF93DF93EC0160E08C8589
:101860000E94130260E08E850E94130288890E9404
:10187000050C7B836A838AE591E00E940C058A81CE
:101880009B810E94260564E670E080E090E00E9463
:10189000970261E08C850E94130261E08E850E94B0
:1018A000130288890E94050C7D836C838FE591E08B
:1018B0000E940C058C819D810E94260564E670E0E3
:1018C00080E090E00E94970260E08C850E94130205
:1018D00061E08E850E94130288890E94050C7F8337
:1018E0006E8385E691E00E940C058E819F810E94A7
:1018F0000E0564E670E080E090E0DF91CF910C94FB
:101900009702EF92FF920F931F93CF93DF938091F3
:10191000920190919301892B09F08DC082E090E0B3
:101920000E94EA157C018AE090E00E94EA158C0191
:101930008EE291E0F80191838083128213821482F7
:10194000158283E090E00E94EA15EC018091B801D5
:101950008C3008F07BC091E0980F9093B801888399
:1019600090E0FC01EE0FFF1FE80FF91FEC56FE4F51
:1019700088EB9BE092838183F801D783C68381E162
:1019800090E09187808788818C3008F04DC061E0BD
:1019900081E10E9441028881282F30E0F901EE0F99
:1019A000FF1FE20FF31FEC56FE4F9081907C916178
:1019B000908319821A822CE0622F0E94A215829FC6
:1019C000B001112430E020E0AB01420F531FFA01B7
:1019D000EE0FFF1FE40FF51FEC56FE4F908196FDB2
:1019E00016C02F5F3F4F2C30310571F781110FC0AA
:1019F0001092800082E08093810010928500109206
:101A00008400B19A80916F00826080936F00E881BA
:101A10008E2F90E0FC01EE0FFF1FE80FF91FEC5630
:101A2000FE4F808180648083F70111830083F092F0
:101A30009301E09292018091920190919301DF9144
:101A4000CF911F910F91FF90EF9008958FEF8883B2
:101A500093CFEF92FF920F931F93CF93DF938091D9
:101A6000900190919101892B09F0DDC08CE090E00C
:101A70000E94EA158C018DE190E00E94EA15EC01CC
:101A800086E191E09983888380E090E0A0E8BFEB55
:101A90008A839B83AC83BD838CE091E09F838E839C
:101AA00081E08E8B1D8A1C8A188A198A1A8A1B8AE1
:101AB0000E94C9026C877D878E879F879E012A5F5F
:101AC0003F4F388F2F8B188619861A861B86688B96
:101AD000798B8A8B9B8B198E1A8E1B8E1C8EF8012C
:101AE000D183C08385E090E00E94EA15EC018CE18F
:101AF00091E09983888388E190E09B838A831C82AC
:101B000060E00E944102F801D383C28388E090E044
:101B10000E94EA15EC0182E2E82E81E0F82EF982BB
:101B2000E8828EE090E09B838A831C821D821E8265
:101B30001F8260E00E944102F801D583C48388E0DF
:101B400090E00E94EA15EC01F982E8828FE090E0D3
:101B50009B838A831C821D821E821F8260E00E94FA
:101B60004102F801D783C68388E090E00E94EA151D
:101B7000EC01F982E88280E190E09B838A831C82F9
:101B80001D821E821F8260E00E944102F801D187FF
:101B9000C08786E190E00E94EA15EC0188E291E0BE
:101BA000998388831B821A821D821C821F821E8257
:101BB00084E090E09987888785E090E09B878A871A
:101BC00086E090E09D878C8787E090E09F878E87F6
:101BD00088E090E0998B888B1A8A1B8A1C8A1D8A60
:101BE00061E084E00E94410261E08A850E94410236
:101BF00061E08C850E94410261E08E850E94410275
:101C000060E088E00E94410261E088850E94130242
:101C100060E08A850E941302F801D387C28710937F
:101C20009101009390018091900190919101DF9139
:101C3000CF911F910F91FF90EF9008951F920F92F7
:101C40000FB60F9211242F933F934F935F936F938F
:101C50007F938F939F93AF93BF93EF93FF938DE900
:101C600092E00E943201FF91EF91BF91AF919F915D
:101C70008F917F916F915F914F913F912F910F9035
:101C80000FBE0F901F9018951F920F920FB60F92D4
:101C900011242F938F939F93EF93FF93E091AD02C5
:101CA000F091AE028081E091B302F091B40282FD26
:101CB0001BC090818091B6028F5F8F732091B70215
:101CC000821741F0E091B602F0E0E356FD4F958FA8
:101CD0008093B602FF91EF919F918F912F910F907A
:101CE0000FBE0F901F9018958081F4CF1F920F9216
:101CF0000FB60F9211242F933F938F939F93AF931F
:101D0000BF938091BB019091BC01A091BD01B091A6
:101D1000BE013091BA0123E0230F2D3758F501960B
:101D2000A11DB11D2093BA018093BB019093BC010A
:101D3000A093BD01B093BE018091BF019091C001FD
:101D4000A091C101B091C2010196A11DB11D809366
:101D5000BF019093C001A093C101B093C201BF9194
:101D6000AF919F918F913F912F910F900FBE0F9048
:101D70001F90189526E8230F0296A11DB11DD2CF02
:101D80001F920F920FB60F9211242F933F934F93F0
:101D90005F936F937F938F939F93AF93BF93CF93F3
:101DA000DF93EF93FF938091B901C091B801D0E028
:101DB00087FF24C010928500109284008091B901A1
:101DC0008F5F8093B9018091B901082E000C990BA7
:101DD0008C179D0724F48091B9018C30C4F1809157
:101DE000840090918500049680349C4908F47AC060
:101DF0008091840090918500049676C08091B9010D
:101E0000082E000C990B8C179D07C4F6E091B901C0
:101E10008E2FEE0F990BFC01EE0FFF1FE80FF91F3D
:101E2000EC56FE4F808186FFC9CFE091B9018E2F1D
:101E3000EE0F990BFC01EE0FFF1FE80FF91FEC5698
:101E4000FE4F808160E08F730E941302B7CF209114
:101E5000840030918500E091B9018E2FEE0F990B2F
:101E6000FC01EE0FFF1FE80FF91FEC56FE4F8181BA
:101E70009281820F931F9093890080938800E09154
:101E8000B9018E2FEE0F990BFC01EE0FFF1FE80F2B
:101E9000F91FEC56FE4F808186FF11C0E091B90119
:101EA0008E2FEE0F990BFC01EE0FFF1FE80FF91FAD
:101EB000EC56FE4F808161E08F730E941302FF9108
:101EC000EF91DF91CF91BF91AF919F918F917F91D2
:101ED0006F915F914F913F912F910F900FBE0F9097
:101EE0001F90189580E49CE9909389008093880066
:101EF0008FEF8093B901E3CF1F920F920FB60F922D
:101F000011242F933F934F935F936F937F938F93FE
:101F10009F93AF93BF93EF93FF938091C4010E946F
:101F2000EA012091C8013091C9012F5F3F4F3093E2
:101F3000C9012093C8019091C701953618F096E029
:101F40009093C3019091C301943009F466C0B8F432
:101F50009230F1F0933009F444C09091C601992376
:101F600009F46BC081117AC08091C501882309F4FE
:101F700063C08091C50161E00E9413025EC095308C
:101F800009F457C0963049F791E0909394024FC0FE
:101F90008111E3CF2091C8013091C9012436310568
:101FA00028F41092C9011092C801D7CF1092940260
:101FB0001092C701E091C70191E09E0F9093C70175
:101FC000F0E02091C8013091C901EE0FFF1FED53E1
:101FD000FE4F308727831092C9011092C80193E009
:101FE00019C0813009F0B9CFE091C70191E09E0F8F
:101FF0009093C701F0E02091C8013091C901EE0F24
:10200000FF1FED53FE4F308727831092C9011092B6
:10201000C80194E09093C301A0CF882359F2209186
:10202000C8013091C9012536310508F496CF95E0F5
:10203000F1CF811192CFB5CF2D9AFF91EF91BF9142
:10204000AF919F918F917F916F915F914F913F9150
:102050002F910F900FBE0F901F9018958091C50182
:10206000882321F08091C50160E086CF2D98E5CFCF
:10207000CF92DF92EF92FF920F931F93E82FF92FE9
:1020800005C0015011092109310961F190819623A0
:102090009417B9F305C0015011092109310911F153
:1020A000908196239413F7CFC12CD12CE12CF12CE5
:1020B0000AC08FEFC81AD80AE80AF80A0C151D05DD
:1020C0002E053F0579F080818623841791F36C2DCE
:1020D0007D2D8E2D9F2D1F910F91FF90EF90DF9002
:1020E000CF90089560E070E080E090E01F910F9144
:1020F000FF90EF90DF90CF900895EDE9F2E013822A
:10210000128288EE93E0A0E0B0E084839583A683FA
:10211000B7838AE391E09183808385EC90E0958793
:10212000848784EC90E09787868780EC90E0918BA1
:10213000808B81EC90E0938B828B82EC90E0958B8E
:10214000848B86EC90E0978B868B118E128E138E8B
:10215000148EEAE3F3E01682178210861186128647
:1021600013861486158616861786108A118A128A97
:10217000138A148A158A0895789484B5826084BD80
:1021800084B5816084BD85B5826085BD85B581607B
:1021900085BD80916E00816080936E0010928100F9
:1021A00080918100826080938100809181008160B4
:1021B0008093810080918000816080938000809175
:1021C000B10084608093B1008091B0008160809301
:1021D000B00080917A00846080937A0080917A00C8
:1021E000826080937A0080917A00816080937A0087
:1021F00080917A00806880937A001092C1001092DA
:102200007C0310927D0310927E0310927F03109244
:102210003C0310923D0310923E0310923F030E9434
:10222000C9026B017C014B015C0128EB820E2BE0A3
:10223000921EA11CB11C0E94C9026C157D058E0561
:102240009F0528F086169706A806B906A0F768EE3F
:1022500073E080E090E00E9497020E948C000E9450
:10226000C90260933C0370933D0380933E039093B7
:102270003F038BE691E00E940C050E94C9026B01AE
:102280007C014B015C013AE0830E911CA11CB11C46
:102290000E94C9026C157D058E059F0528F08616E3
:1022A0009706A806B906A0F781E0809350030E9424
:1022B0008C000E94290D0E94290D0E94810CDC01D6
:1022C0008D919C91909396028093950287E190E086
:1022D0000E94EA158C0185E290E00E94EA15EC016B
:1022E00084E391E0998388831B821A821C8E8BE0A1
:1022F00090E098A38F8F19A21AA21BA21CA281E0C2
:1023000090E00E94EA152BE02093C4011092C601D0
:102310009E8F8D8FF89482E08093B0008093B100FF
:1023200094E69093B3001092B2008093700078947A
:102330008093C3011092C7018091C40160E00E94A4
:102340004102F801D187C087128614861386168A47
:10235000158A00E010E084EFC82EDD24D394E12C30
:10236000F12C0E94C902672B682B692B09F4E0C08D
:102370000E94C9028090990290909A02A0909B02BC
:10238000B0909C02681579058A059B0508F425C163
:102390008090990290909A02A0909B02B0909C022B
:1023A0009B01AC01281939094A095B0949015A0105
:1023B0003AEF83169104A104B10408F4C1C06093FC
:1023C000990270939A0280939B0290939C02C09210
:1023D0004803D0924903E0924A03F0924B031092D3
:1023E0004C0310924D0310924E0310924F038091B4
:1023F000400390914103A0914203B0914303809325
:10240000440390934503A0934603B09347030E946F
:10241000C9026093400370934103809342039093F9
:1024200043030E94C90260933C0370933D03809371
:102430003E0390933F030E94C9024B015C018CE76D
:1024400091E00E940C054AE061E070E080E090E0DD
:102450000E94A70483E891E00E940C054AE0C501B0
:10246000B4010E94A70485E891E00E940C058091C8
:10247000400390914103A0914203B0914303A50111
:102480009401281B390B4A0B5B0BCA01B9014AE0C6
:102490000E94A70485E891E00E940C05609140032A
:1024A00070914103809142039091430380904403D3
:1024B00090904503A0904603B090470368197909AE
:1024C0008A099B094AE00E94A70487E891E00E94DC
:1024D0000C050E94C9024AE00E94A70489E891E025
:1024E0000E949A0488E491E00E949A040E94C90222
:1024F0002B013C015C014B0135E0830E911CA11CBA
:10250000B11C0E94C902641575058605970528F05F
:1025100086169706A806B906A0F70E94C90260931E
:10252000400370934103809342039093430308C098
:102530000E94C902623071058105910508F018CF2B
:102540008091000190910101C0919702D091980271
:10255000C80FD91FD0939802C0939702C43BD105EE
:1025600011F0209739F4919581959109909301018B
:1025700080930001A0909502B0909602BE010D2EAE
:10258000000C880B990B0E94FD12D50112966D93D9
:102590007D938D939C93159762E370E080E090E0CB
:1025A0000E949702CE010E940E050E94810CFC0140
:1025B00080819181DC01ED91FC910190F081E02D11
:1025C00009950115110509F4CCCE0E941E0188233E
:1025D00009F4C7CE0E940000C4CE609399027093A4
:1025E0009A0280939B0290939C02D2CE0E94381351
:1025F00008F481E00895E89409C097FB3EF49095B3
:102600008095709561957F4F8F4F9F4F9923A9F0CB
:10261000F92F96E9BB279395F6958795779567955A
:10262000B795F111F8CFFAF4BB0F11F460FF1BC09E
:102630006F5F7F4F8F4F9F4F16C0882311F096E931
:1026400011C0772321F09EE8872F762F05C06623DF
:1026500071F096E8862F70E060E02AF09A95660F98
:10266000771F881FDAF7880F9695879597F9089551
:10267000990F0008550FAA0BE0E8FEEF1616170693
:10268000E807F907C0F012161306E407F50798F0FB
:10269000621B730B840B950B39F40A2661F0232B14
:1026A000242B252B21F408950A2609F4A140A69590
:1026B0008FEF811D811D08950E946F130C94E0130C
:1026C0000E94D21338F00E94D91320F0952311F004
:1026D0000C94C9130C94CF1311240C9414140E945D
:1026E000F11370F3959FC1F3950F50E0551F629F52
:1026F000F001729FBB27F00DB11D639FAA27F00D5B
:10270000B11DAA1F649F6627B00DA11D661F829F81
:102710002227B00DA11D621F739FB00DA11D621F66
:10272000839FA00D611D221F749F3327A00D611D83
:10273000231F849F600D211D822F762F6A2F112465
:102740009F5750409AF0F1F088234AF0EE0FFF1F98
:10275000BB1F661F771F881F91505040A9F79E3FEF
:10276000510580F00C94C9130C9414145F3FE4F3EA
:10277000983ED4F3869577956795B795F795E79545
:102780009F5FC1F7FE2B880F911D9695879597F94E
:10279000089597F99F6780E870E060E008959FEFE3
:1027A00080EC089500240A941616170618060906E8
:1027B000089500240A9412161306140605060895B7
:1027C000092E0394000C11F4882352F0BB0F40F43F
:1027D000BF2B11F460FF04C06F5F7F4F8F4F9F4F7F
:1027E000089557FD9058440F551F59F05F3F71F001
:1027F0004795880F97FB991F61F09F3F79F0879568
:102800000895121613061406551FF2CF4695F1DFF0
:1028100008C0161617061806991FF1CF8695710580
:10282000610508940895E894BB2766277727CB01B4
:1028300097F90895DB018F939F930E946B14BF91CA
:10284000AF91A29F800D911DA39F900DB29F900DFF
:1028500011240895A1E21A2EAA1BBB1BFD010DC075
:10286000AA1FBB1FEE1FFF1FA217B307E407F50740
:1028700020F0A21BB30BE40BF50B661F771F881F1C
:10288000991F1A9469F760957095809590959B01B2
:10289000AC01BD01CF010895052E97FB1EF40094F5
:1028A0000E94631457FD07D00E942A1407FC03D02E
:1028B0004EF40C94631450954095309521953F4FFC
:1028C0004F4F5F4F089590958095709561957F4F1C
:1028D0008F4F9F4F08950E947E14A59F900DB49F27
:1028E000900DA49F800D911D11240895B7FF0C94A5
:1028F0006B140E946B14821B930B0895A29FB0016E
:10290000B39FC001A39F700D811D1124911DB29F23
:10291000700D811D1124911D08955058BB27AA27C1
:102920000E94A5140C94E0130E94D21338F00E9468
:10293000D91320F039F49F3F19F426F40C94CF13E7
:102940000EF4E095E7FB0C94C913E92F0E94F113F4
:1029500058F3BA17620773078407950720F079F4D4
:10296000A6F50C9413140EF4E0950B2EBA2FA02D9F
:102970000B01B90190010C01CA01A0011124FF272C
:10298000591B99F0593F50F4503E68F11A16F04027
:10299000A22F232F342F4427585FF3CF4695379526
:1029A0002795A795F0405395C9F77EF41F16BA0BEB
:1029B000620B730B840BBAF09150A1F0FF0FBB1F99
:1029C000661F771F881FC2F70EC0BA0F621F731FE2
:1029D000841F48F4879577956795B795F7959E3F3F
:1029E00008F0B0CF9395880F08F09927EE0F9795D0
:1029F000879508950E940E150C94E0130E94D91338
:102A000058F00E94D21340F029F45F3F29F00C9453
:102A1000C91351110C9414140C94CF130E94F11388
:102A200068F39923B1F3552391F3951B550BBB27FD
:102A3000AA2762177307840738F09F5F5F4F220F42
:102A4000331F441FAA1FA9F335D00E2E3AF0E0E839
:102A500032D091505040E695001CCAF72BD0FE2F83
:102A600029D0660F771F881FBB1F26173707480717
:102A7000AB07B0E809F0BB0B802DBF01FF279358CF
:102A80005F4F3AF09E3F510578F00C94C9130C94B7
:102A900014145F3FE4F3983ED4F3869577956795D9
:102AA000B795F7959F5FC9F7880F911D9695879504
:102AB00097F90895E1E0660F771F881FBB1F621723
:102AC00073078407BA0720F0621B730B840BBA0BE1
:102AD000EE1F88F7E09508950E9473156894B11170
:102AE0000C94141408950E94F91388F09F5798F0DD
:102AF000B92F9927B751B0F0E1F0660F771F881F03
:102B0000991F1AF0BA95C9F714C0B13091F00E941C
:102B10001314B1E008950C941314672F782F8827AD
:102B2000B85F39F0B93FCCF3869577956795B39543
:102B3000D9F73EF490958095709561957F4F8F4FB2
:102B40009F4F0895991B79E004C0991F961708F0CC
:102B5000961B881F7A95C9F780950895002E083036
:102B600090F0982F872F762F652F542F432F322FD9
:102B700022270850F4CF220F331F441F551F661F12
:102B8000771F881F991F0A95B2F7002D089597FDAA
:102B90001094002E083098F00850232F342F452F22
:102BA000562F672F782F892F912DF4CF1594979555
:102BB00087957795679557954795379527950A9502
:102BC000AAF71124002D0895EE0FFF1F0590F49130
:102BD000E02D09940F931F93CF93DF9382309105DB
:102BE00010F482E090E0E0918203F091830330E002
:102BF00020E0B0E0A0E0309799F42115310509F408
:102C00004AC0281B390B24303105D8F58A819B81B5
:102C10006115710589F1FB0193838283FE0111C067
:102C2000408151810281138148175907E0F048170C
:102C3000590799F4109761F012960C931297139616
:102C40001C933296CF01DF91CF911F910F91089580
:102C50000093820310938303F4CF2115310551F0C3
:102C60004217530738F0A901DB019A01BD01DF01CA
:102C7000F801C1CFEF01F9CF9093830380938203D2
:102C8000CDCFFE01E20FF31F8193919322503109C2
:102C900039832883D7CF2091800330918103232B60
:102CA00041F4209104013091050130938103209378
:102CB000800320910201309103012115310541F477
:102CC0002DB73EB74091060150910701241B350BEB
:102CD000E0918003F0918103E217F307A0F42E1B2B
:102CE0003F0B2817390778F0AC014E5F5F4F241770
:102CF000350748F04E0F5F1F5093810340938003C8
:102D0000819391939FCFF0E0E0E09CCFCF93DF934E
:102D10000097E9F0FC01329713821282A09182039E
:102D2000B0918303ED0130E020E01097A1F4208101
:102D30003181820F931F20918003309181032817E6
:102D4000390709F061C0F0938103E0938003DF91BC
:102D5000CF910895EA01CE17DF07E8F54A815B813C
:102D60009E0141155105B1F7E901FB83EA834991C1
:102D70005991C40FD51FEC17FD0761F48081918133
:102D80000296840F951FE90199838883828193813C
:102D90009B838A83F0E0E0E012968D919C911397DB
:102DA0000097B9F52D913C911197CD010296820FB4
:102DB000931F20918003309181032817390739F63A
:102DC000309751F51092830310928203B0938103E0
:102DD000A0938003BCCFD383C28340815181840FF1
:102DE000951FC817D90761F44E5F5F4F888199819D
:102DF000480F591F518340838A819B81938382832B
:102E00002115310509F0B0CFF0938303E0938203DD
:102E10009ECFFD01DC01C0CF13821282D7CFF89480
:022E2000FFCFE2
:102E2200010000008403800000000000C203B1031F
:102E32008E030000000094040000000086040000DD
:102E420000005904000000002B0C00000000D40315
:102E5200000000003005000000005401B400E10051
:102E6200A1011201F00004010D0A005265636569B7
:102E720076656420646174613A0052203D2000202E
:102E820047203D20002042203D2000564D44505610
:102E92005F317C315F564D4450560A00564D4450C6
:102EA200455F003A323A007C005F564D445045007F
:00000001FF
