:100000000C9462000C948A000C948A000C948A0070
:100010000C948A000C948A000C948A000C94510C65
:100020000C948A000C948A000C948A000C948A0028
:100030000C948A000C948A000C948A000C948A0018
:100040000C94070C0C948A000C94D50B0C94AF0BF9
:100050000C948A000C948A000C948A000C948A00F8
:100060000C948A000C948A000000000023002600F3
:10007000290000000008000201000003040700003E
:1000800000000000000000000000250028002B00F8
:1000900000000000240027002A00040404040404D3
:1000A0000404020202020202030303030303010227
:1000B00004081020408001020408102001020408F6
:1000C00010200D0D11241FBECFEFD8E0DEBFCDBF35
:1000D00023E0A4E7B1E001C01D92AB34B207E1F721
:1000E00011E0A0E0B1E0E2E5F8E202C005900D9277
:1000F000A437B107D9F710E0C2E6D0E004C02197D9
:10010000FE010E94FC12C136D107C9F70E944C0DB6
:100110000C9427140C940000E4E6F2E0A089B18965
:1001200082E08C93A485B5851C92A685B78580E175
:100130008C93108EA489B58986E08C93A289B389AB
:100140008C9180618C93A289B3898C9188608C9307
:10015000A289B3898C9180688C930288F389E02D01
:1001600080818F7D80830895CF93DF9390E0FC01A1
:10017000E255FF4F249186569F4FFC0184918823BE
:10018000C1F090E0880F991FFC01E057FF4FC59127
:10019000D491FC01EA57FF4FA591B4919FB7F89411
:1001A0008881E22FE0958E2388838C91E823EC935D
:1001B0009FBFDF91CF910895AF92BF92CF92DF9210
:1001C000EF92FF920F931F93CF93DF936C017B010C
:1001D0008B01040F151FEB015E01AE18BF08C0179D
:1001E000D10759F06991D601ED91FC910190F08110
:1001F000E02DC6010995892B79F7C501DF91CF91D3
:100200001F910F91FF90EF90DF90CF90BF90AF9034
:100210000895FC01538D448D252F30E0842F90E00C
:10022000821B930B541710F0CF96089501970895F1
:10023000FC01918D828D981761F0A28DAE0FBF2FBA
:10024000B11D5D968C91928D9F5F9F73928F90E010
:1002500008958FEF9FEF0895FC01918D828D98177F
:1002600031F0828DE80FF11D858D90E008958FEFBC
:100270009FEF0895FC01918D228D892F90E0805C85
:100280009F4F821B91098F739927089584E692E00E
:100290000E943A0121E0892B09F420E0822F089581
:1002A00080E090E0892B29F00E94460181110C9496
:1002B00000000895FC01A48DA80FB92FB11DA35A09
:1002C000BF4F2C91848D90E001968F739927848F76
:1002D000A689B7892C93A089B1898C918370806499
:1002E0008C93938D848D981306C00288F389E02D3A
:1002F00080818F7D80830895EF92FF920F931F93EB
:10030000CF93DF93EC0181E0888F9B8D8C8D9813C8
:100310001AC0E889F989808185FF15C09FB7F894D4
:10032000EE89FF896083E889F98980818370806420
:1003300080839FBF81E090E0DF91CF911F910F916B
:10034000FF90EF900895F62E0B8D10E00F5F1F4F7A
:100350000F731127E02E8C8D8E110CC00FB607FC89
:10036000FACFE889F989808185FFF5CFCE010E9417
:100370005A01F1CFEB8DEC0FFD2FF11DE35AFF4F2A
:10038000F0829FB7F8940B8FEA89FB8980818062A5
:10039000CFCFCF93DF93EC01888D8823B9F0AA8962
:1003A000BB89E889F9898C9185FD03C0808186FD30
:1003B0000DC00FB607FCF7CF8C9185FFF2CF80817F
:1003C00085FFEDCFCE010E945A01E9CFDF91CF9199
:1003D0000895833081F028F4813099F08230A9F0BB
:1003E00008958730A9F08830C9F08430B1F4809145
:1003F00080008F7D03C0809180008F778093800084
:10040000089584B58F7784BD089584B58F7DFBCF23
:100410008091B0008F778093B00008958091B000F4
:100420008F7DF9CFCF93DF93282F30E0F901EE587D
:10043000FF4F8491F901E255FF4FD491F901E6563F
:10044000FF4FC491CC23A1F081110E94E901EC2F50
:10045000F0E0EE0FFF1FE859FF4FA591B491EC912A
:10046000ED2381E090E009F480E0DF91CF910895E1
:1004700080E090E0FACF1F93CF93DF93282F30E0F6
:10048000F901EE58FF4F8491F901E255FF4FD491E5
:10049000F901E656FF4FC491CC23A9F0162F811124
:1004A0000E94E901EC2FF0E0EE0FFF1FEA57FF4F2B
:1004B000A591B4918FB7F894EC91111108C0D09523
:1004C000DE23DC938FBFDF91CF911F910895DE2B48
:1004D000F8CF3FB7F89480917B0190917C01A09177
:1004E0007D01B0917E0126B5A89B05C02F3F19F074
:1004F0000196A11DB11D3FBFBA2FA92F982F8827A4
:10050000BC01CD01620F711D811D911D42E0660F7E
:10051000771F881F991F4A95D1F708958F929F9250
:10052000AF92BF92CF92DF92EF92FF924B015C01AC
:100530000E9469026B017C010E9469026C197D09AD
:100540008E099F09683E734081059105A8F321E05B
:10055000821A9108A108B10888EEC80E83E0D81E5F
:10056000E11CF11C81149104A104B10429F7FF904E
:10057000EF90DF90CF90BF90AF909F908F900895B5
:100580002FB7F8946091770170917801809179018B
:1005900090917A012FBF0895CF92DF92EF92FF9250
:1005A000CF93DF93EC01072E000C880B990B0E9470
:1005B00048106B017C0120E030E040E45FE30E94E2
:1005C000A71020E030E048E452E40E941E120E948E
:1005D0009012C617D707D4F020E030E040EA5FE37E
:1005E000C701B6010E94A71020E030E048E452E4C1
:1005F0000E941E1220E030E040E85FE30E94B2114A
:100600000E94901221E06C177D070CF420E0822FED
:1006100090E0DF91CF91FF90EF90DF90CF90089521
:100620008F929F92AF92BF92CF92DF92EF92FF9202
:100630000F931F93CF93DF93DB01ED91FC91EC01BE
:10064000AC85BD8501E010E0EA17FB070CF045C062
:10065000EF01CC0FDD1FDC011A968D919C91DC011E
:10066000AC0FBD1FAD90BC908F010095109501702F
:1006700011278CE99FEFE0FF02C084E690E0E901DA
:100680006A017B014C01820E931EB401C5010E94D8
:10069000CC0221E030E0892BB9F48C0E9D1EB40110
:1006A000C5010E94CC0222E030E0892B69F4BE0132
:1006B000680D791DC5010E94CC0223E030E0892B32
:1006C00019F40FEF1FEF09C0E601888199810196A7
:1006D0008217930784F499838883C801DF91CF91AF
:1006E0001F910F91FF90EF90DF90CF90BF90AF9050
:1006F0009F908F90089519821882D7018D919C91B7
:10070000119701968D939C93E8CF0F931F93CF93EE
:10071000DF93EC01EE85FF85309709F009950E9483
:10072000C0026E837F83888799870A811B812C8111
:100730003D81DC01CB01800F911FA21FB31F8A876F
:100740009B87AC87BD87DF91CF911F910F91089553
:100750000F931F93FC010285138524853585401B6B
:10076000510B620B730B80E077FF80891F910F9113
:100770000895FC0142835383648375838681978146
:10078000A085B185840F951FA61FB71F8287938709
:10079000A487B5870895CF93DF93EC018A818E30CB
:1007A00008F08E508770806480937C0080917A007E
:1007B000806480937A0080917A0086FDFCCF8091DE
:1007C000780060917900762F682F072E000C880B37
:1007D000990B0E94481020E030E040E85AE30E9464
:1007E000A7106C837D838E839F83DF91CF910895C3
:1007F000CF93DF93EC018A810E94120221E00197DE
:1008000009F020E02C83DF91CF91089562E370E03E
:1008100080E090E00C948E02FC0101900020E9F74A
:100820003197AF01481B590BBC0184E692E00C9450
:10083000DC008F929F92AF92BF920F931F93CF9342
:10084000DF93CDB7DEB7A1970FB6F894DEBF0FBE2A
:10085000CDBF19A2423008F44AE08E010F5D1F4F50
:10086000842E912CB12CA12CA50194010E9475110C
:10087000E62FB901CA01EA30F4F4E05DD801EE9345
:100880008D01232B242B252B79F790E080E0109706
:1008900019F0CD010E940C04A1960FB6F894DEBFAA
:1008A0000FBECDBFDF91CF911F910F91BF90AF9041
:1008B0009F908F900895E95CE1CF2F923F924F92E5
:1008C0005F926F927F928F929F92AF92BF92CF92E0
:1008D000DF92EF92FF920F931F93CF93DF93CDB7E9
:1008E000DEB728970FB6F894DEBF0FBECDBFFC0170
:1008F00086E891E0978B868B8091830190E0918FC1
:10090000808F8091500290E0938F828F80917F0141
:10091000853009F0C7C37F018091880190918901DA
:10092000885891098D35910508F04CC0809183015C
:100930008430E1F480918A0190918B0180974797F0
:10094000A8F480918C0190918D010997099770F41A
:10095000158A148A8FEF9FEFDC01808B918BA28B1D
:10096000B38B83E090E09587848755C380918301A2
:10097000843440F180918A0190918B0182549109D5
:100980008E9700F530E020E080E090E0DC01F90196
:10099000E457FE4F4081518149505109493051057A
:1009A00088F4F901E257FE4F4081518147515109C6
:1009B0004231510518F1408151814650510947306B
:1009C000510568F1809183018A3108F45CC08091FF
:1009D000860190918701843F914030F5D70155966B
:1009E0001C921E9254978FEF9FEFDC01F701808BD2
:1009F000918BA28BB38B8BE090E0B5CF880F991FC2
:100A0000AA1FBB1F81602C5F3F4F2038310509F0C2
:100A1000BECF20E230E0F701358B248B9ECF880FCC
:100A2000991FAA1FBB1FEFCF809188019091890168
:100A300085974B9740F5EFE7F1E082E090E040E0EA
:100A400050E0BA01DC011196209183012A171B06A0
:100A500009F00CF401C12385348527503109273072
:100A6000310508F0F8C025853685235131092F302E
:100A7000310508F4E3C0258536852A50310929302F
:100A8000310508F4E3C0809183018A31F0F180914F
:100A90008601909187018032934008F49FCF809126
:100AA000880190918901C697869778F580918A018F
:100AB00090918B01C697869740F5EFE7F1E083E0D0
:100AC00090E040E050E0BA01DC01119620918301F2
:100AD0002A171B0609F00CF4E4C0258536852C5036
:100AE00031092B30310508F0DBC0278530892552CC
:100AF00031092B31310508F4C6C0278530892C50C7
:100B000031092A30310508F4C6C080918301823250
:100B100038F180918801909189010697079700F537
:100B2000EFE7F1E082E090E040E050E0BA01DC0164
:100B30001196209183012A171B0609F00CF4DBC0E3
:100B4000238534852E5131092731310508F4BEC083
:100B5000238534852C5031092B30310508F4C5C06C
:100B60008701045F1F4F1C821B8281E090E09A8303
:100B70008983809183018D3008F4EAC029E733E04E
:100B8000AE014D5F5F4FBE016F5F7F4FC8010E9496
:100B90001003892B09F0DCC029E733E0AE014D5F7B
:100BA0005F4FBE016F5F7F4FC8010E941003019726
:100BB00009F0CEC029E733E0AE014D5F5F4FBE01C3
:100BC0006F5F7F4FC8010E9410036C01892B09F0F1
:100BD000BFC0412C512C32012091830189819A811F
:100BE0002817190609F00CF4A6C029E733E0AE0176
:100BF0004D5F5F4FBE016F5F7F4FC8010E941003C2
:100C00005C0129E733E0AE014D5F5F4FBE016F5FCE
:100C10007F4FC8010E941003F1E0AF16B10409F044
:100C200081C0892B09F094C0440C551C661C771CAC
:100C3000689440F82FEFC21AD20ACECF440F551F46
:100C4000661F771F416002963496FCCE440F551FF5
:100C5000661F771FF8CFCD01019795958795D7012E
:100C600055969C938E9354970C972CF455961C9202
:100C70001E92549708CFF701408B518B628B738B78
:100C800084E090E070CE440F551F661F771F4160CF
:100C90000296349619CF440F551F661F771FF8CF61
:100CA000CD01019795958795D70155969C938E9385
:100CB00054970C972CF455961C921E92549725CF5E
:100CC000F701408B518B628B738B95CE440F551F70
:100CD000661F771F4160258536853496235031097C
:100CE0002530310538F4029622CF440F551F661F78
:100CF000771FF1CFCD01019795958795D70155962F
:100D00009C938E93549740972CF455961C921E9268
:100D1000549726CFF701408B518B628B738B8CE0FD
:100D200090E021CEAB28A1F4019791F4440C551C1E
:100D3000661C771C7FCFD7015596DC92CE925497D4
:100D4000F701408A518A628A738A81E090E00BCE73
:100D50001C821B8281E090E09A838983D701589698
:100D60008D919C915997181619060CF08AC05696C9
:100D7000ED91FC9182E090E09A8389838281938156
:100D800089974E9708F07DC083E090E09A8389832D
:100D9000848195810B970A9708F073C02CEB31E0A2
:100DA000AE014D5F5F4FBE016F5F7F4FC8010E9474
:100DB00010036C01892B09F064C02CEB31E0AE010B
:100DC0004D5F5F4FBE016F5F7F4FC8010E941003F0
:100DD000019709F056C0412C512C3201F701208DAA
:100DE000318D89819A81821793070CF0EBC02CEB2F
:100DF00031E0AE014D5F5F4FBE016F5F7F4FC801B5
:100E00000E9410034C01F3E0CF16D10461F12CEBEA
:100E100031E0AE014D5F5F4FBE016F5F7F4FC80194
:100E20000E9410035C0123E0C216D10471F42CEB84
:100E300031E0AE014D5F5F4FBE016F5F7F4FC80174
:100E40000E941003A816B906E1F48114910409F474
:100E5000ABC08A948928A9F4AB2899F4440C551C9A
:100E6000661C771CABC02CEB31E0AE014D5F5F4FD1
:100E7000BE016F5F7F4FC8010E941003881699065C
:100E800031F2D7015696ED91FC9182819381C697FC
:100E9000869778F5848195814B97459750F5DF01CA
:100EA00016966F0126ECC20ED11C20E030E040E027
:100EB00050E060E070E080E090E00D911C911197AF
:100EC0000950110908301105A0F412960D911C91DA
:100ED0001397015111090D30110508F481C01296C4
:100EE0000D911C911397045011090530110508F458
:100EF000F2C080918301893380F182819381895787
:100F000091098335910548F584819581CA97899720
:100F100020F59F012A5F3F4F812C912C540143E023
:100F200050E0D9016D917C9111976A507109693037
:100F3000710598F412966D917C9113976651710921
:100F40006131710508F4CBC012966D917C916650A9
:100F500071096730710508F4EDC080918301823218
:100F600009F0EDC0828193810A97099708F0E7C0E4
:100F7000A0918301B0E0A150B048AA0FBB1FAE0FF3
:100F8000BF1F8D919C910A97099708F0D8C0F7016F
:100F9000158A148A8FEF9FEFDC01808B918BA28BD7
:100FA000B38B86E090E0DFCCAA94AB2809F069CF40
:100FB000440C551C661C771C689440F8BFEFCB1A94
:100FC000DB0A0CCFD58AC48AD701408A518A628A4B
:100FD000738A82E090E01D969C938E931C971BC0B1
:100FE00001E00E94C61221601496AC15BD0509F0FF
:100FF00064CFF701208B318B428B538B00E20E9430
:10100000E1122687378785E090E09587848780E323
:1010100090E0958B848BF701848D81110AC38089C0
:101020009189A289B3898F3F9F4FAF4FBF4F21F462
:1010300081E0D7015C968C93D7015C968C915C978C
:10104000833058F15C961C928AE391E00E940C0474
:1010500087010C5F1F4F6701BCE0CB0ED11C89E4F8
:1010600091E00E940C04F80161918F0170E090E022
:1010700080E04AE00E9419040C151D0581F78BE4FD
:1010800091E00E940C04D70112968D919C911397C8
:10109000019613969C938E93129782E080937F0122
:1010A0001092830128960FB6F894DEBF0FBECDBF15
:1010B000DF91CF911F910F91FF90EF90DF90CF9034
:1010C000BF90AF909F908F907F906F905F904F9068
:1010D0003F902F90089501E00E94C61285CFD50160
:1010E000C401880F991FAA1FBB1F4C015D016894A2
:1010F00080F84E5F5F4F2C5F3F4F4B33510509F037
:1011000010CF9F012A583F4FD9012D913C912A5071
:1011100031092930310508F020CF2CE130E0F7010A
:10112000358B248BD701808A918AA28AB38A8AE080
:1011300090E051CF880C991CAA1CBB1CDACF82818D
:101140009381895791098335910560F580918301D9
:10115000813240F184819581CA97899718F59F0162
:101160002A5F3F4F812C912C540143E050E0D9017C
:101170006D917C9111976A5071096930710590F4F5
:1011800012966D917C9113976651710961317105C9
:1011900068F112966D917C91665071096730710506
:1011A00008F44FC0828193818C549109C59708F04F
:1011B0007CC080918301843009F048C0848195818E
:1011C0008097479708F042C08681978109970997D1
:1011D000E8F5F701158A148A8FEF9FEFDC01808B09
:1011E000918BA28BB38B87E090E0BDCBD501C4017E
:1011F000880F991FAA1FBB1F4C015D01689480F8DE
:101200004E5F5F4F2C5F3F4F4332510509F0AFCF28
:101210009F012A5B3F4FD9012D913C912A50310902
:101220002930310508F0BECF20E130E0F701358BE1
:10123000248BD701808A918AA28AB38A86E090E0C3
:10124000CACE880C991CAA1CBB1CDACF80918301E2
:10125000843458F18481958189549109C39728F584
:101260009F012A5F3F4FAF014A575F4F812C912C5E
:101270005401D9016D917C911197695071096930C0
:10128000710598F412966D917C91139766517109CE
:101290006131710508F4A0C012966D917C91665081
:1012A00071096730710508F4B4C0809183018634F8
:1012B000C0F1828193810C970B9798F58481958179
:1012C0000997099770F5868197818C974F9748F514
:1012D0008085918589974D9720F59F01265F3F4F27
:1012E000812C912C540145E050E0D9016D917C9105
:1012F00011976C5071096B30710598F412966D91CD
:101300007C9113976E5171096731710508F486C09D
:1013100012966D917C91695071096930710508F4DC
:10132000A8C080918301883508F4B2C0828193817E
:10133000855891098B35910508F0AAC08481958163
:10134000825491098E9708F0A3C08F01045C1F4F4F
:101350008DE190E030E020E0409183014450550B56
:101360008417950714F5A80142505109DA014D91EF
:101370005C91495051094830510508F089C0BC01C1
:101380006F5F7F4FD8014D915C9111974750510984
:101390004730510508F472C04D915C914851510994
:1013A0004231510508F471C0CB010197959587959D
:1013B000D70155969C938E9354978A970CF468C0E6
:1013C000C901330FAA0BBB0BF701808B918BA28B4A
:1013D000B38B89E090E0C7CAD501C401880F991F7B
:1013E000AA1FBB1F4C015D01689480F82C5F3F4F22
:1013F0004217530709F03DCF20E230E0F701358B6B
:10140000248BD701808A918AA28AB38A87E090E0F0
:10141000E2CD880C991CAA1CBB1CE8CFD501C401E5
:10142000880F991FAA1FBB1F4C015D01689480F8AB
:101430004E5F5F4F2C5F3F4F4534510509F055CF4C
:101440009F0126573F4FD9012D913C912C503109D6
:101450002B30310508F065CF20E230E0F701358B05
:10146000248BD701808A918AA28AB38A88E090E08F
:10147000B2CD880C991CAA1CBB1CDACF220F331FDB
:10148000216002960C5F1F4F67CF220F331FF9CFE9
:1014900080918301803279F5828193810697069746
:1014A00050F5848195810997099728F59F012A5F56
:1014B0003F4FAF01425C5F4F812C912C5401D90109
:1014C0006D917C911197665071096630710598F4A1
:1014D00012966D917C911397695171096331710571
:1014E00008F485C012966D917C916950710969303C
:1014F000710508F499C0D70158962D903C90B6E03C
:101500002B1631040CF4C9CD8F010E5F1F4F85ECF3
:10151000882E8DE9982E8CE1A82E81E8B82E93E0D4
:10152000C92ED12CF801648175816080718090E0B2
:1015300080E00E9446106D837E838F839887B3017D
:1015400090E080E00E9446102B013C012DEC3CEC29
:101550004CE45FE30E94A7109B01AC016D817E818A
:101560008F8198850E944110F0E0E0E087FD16C071
:101570002DEC3CEC4CE45FE36D817E818F8198859E
:101580000E94A7109B01AC01C301B2010E9441104F
:10159000E2E0F0E087FD02C0E1E0F0E0A5019401A7
:1015A00063E971E080E091E00E9465114F01FF0F57
:1015B000AA08BB0886269726A826B926FFEFCF1AC9
:1015C000DF0A0E5F1F4F2C143D0409F0ABCFD7018B
:1015D00050968D929D92AD92BC92539780E290E08E
:1015E00055969C938E9354978FEF9FEFF4CCD50133
:1015F000C401880F991FAA1FBB1F4C015D0168948D
:1016000080F82C5F3F4F2417350709F058CF2EE0A4
:1016100030E0F701358B248BD701808A918AA28A2A
:10162000B38A8FE090E0D7CC880C991CAA1CBB1C15
:10163000E8CF813061F490892189328943894483DC
:101640003583268397838F5FF701848FF5CC8230B3
:10165000D1F7908921893289438940873187228750
:101660009387F1CF0F931F93CF93DF9380917401F2
:1016700090917501892B09F069C086E090E00E9485
:1016800002138C018DE190E00E940213EC0184E1D1
:1016900091E09983888380E090E0A0E8BFEB8A83A3
:1016A0009B83AC83BD838AE091E09F838E8381E03E
:1016B0008E8B1D8A1C8A188A198A1A8A1B8A0E9494
:1016C000C0026C877D878E879F879E012A5F3F4F70
:1016D000388F2F8B188619861A861B86688B798B14
:1016E0008A8B9B8B198E1A8E1B8E1C8EF801D183D0
:1016F000C08385E090E00E940213EC018AE191E052
:101700009983888388E190E09B838A831C820E946E
:10171000B400F801D383C28388E090E00E940213F2
:10172000EC0180E291E0998388838EE090E09B83D6
:101730008A831C821D821E821F820E94B400F801CF
:10174000D583C48310937501009374018091740153
:1017500090917501DF91CF911F910F9108951F9284
:101760000F920FB60F9211242F933F934F935F93D5
:101770006F937F938F939F93AF93BF93EF93FF9359
:1017800084E692E00E945A01FF91EF91BF91AF91E0
:101790009F918F917F916F915F914F913F912F9189
:1017A0000F900FBE0F901F9018951F920F920FB6BB
:1017B0000F9211242F938F939F93EF93FF93E091B8
:1017C0007402F09175028081E0917A02F0917B02BF
:1017D00082FD1BC0908180917D028F5F8F7320916D
:1017E0007E02821741F0E0917D02F0E0EC59FD4F5E
:1017F000958F80937D02FF91EF919F918F912F9113
:101800000F900FBE0F901F9018958081F4CF1F92FC
:101810000F920FB60F9211242F933F938F939F93A4
:10182000AF93BF938091770190917801A091790156
:10183000B0917A013091760123E0230F2D3758F5CE
:101840000196A11DB11D209376018093770190939D
:101850007801A0937901B0937A0180917B019091F6
:101860007C01A0917D01B0917E010196A11DB11D69
:1018700080937B0190937C01A0937D01B0937E01C6
:10188000BF91AF919F918F913F912F910F900FBE7C
:101890000F901F90189526E8230F0296A11DB11DE9
:1018A000D2CF1F920F920FB60F9211242F933F9316
:1018B0004F935F936F937F938F939F93AF93BF9358
:1018C000EF93FF93809180010E9412022091840186
:1018D000309185012F5F3F4F309385012093840124
:1018E00090918301953618F096E090937F01909146
:1018F0007F01943009F466C0B8F49230F1F093306F
:1019000009F444C090918201992309F46BC08111BC
:101910007AC080918101882309F463C0809181019C
:1019200061E00E943B025EC0953009F457C09630DA
:1019300049F791E0909350024FC08111E3CF20917D
:101940008401309185012436310528F410928501F7
:1019500010928401D7CF1092500210928301E0912F
:10196000830191E09E0F90938301F0E02091840128
:1019700030918501EE0FFF1FE158FE4F308727831E
:10198000109285011092840193E019C0813009F012
:10199000B9CFE091830191E09E0F90938301F0E035
:1019A0002091840130918501EE0FFF1FE158FE4F19
:1019B00030872783109285011092840194E09093E0
:1019C0007F01A0CF882359F22091840130918501B5
:1019D0002536310508F496CF95E0F1CF811192CFED
:1019E000B5CF2D9AFF91EF91BF91AF919F918F91BC
:1019F0007F916F915F914F913F912F910F900FBE0B
:101A00000F901F90189580918101882321F080917B
:101A1000810160E086CF2D98E5CFE4E6F2E0138205
:101A2000128288EE93E0A0E0B0E084839583A683E1
:101A3000B7838CE291E09183808385EC90E0958779
:101A4000848784EC90E09787868780EC90E0918B88
:101A5000808B81EC90E0938B828B82EC90E0958B75
:101A6000848B86EC90E0978B868B118E128E138E72
:101A7000148EE1E0F3E0168217821086118612863A
:101A800013861486158616861786108A118A128A7E
:101A9000138A148A158A0895CF93DF93CDB7DEB7E2
:101AA00028970FB6F894DEBF0FBECDBF789484B5EB
:101AB000826084BD84B5816084BD85B5826085BD4A
:101AC00085B5816085BD80916E00816080936E00D8
:101AD00010928100809181008260809381008091CA
:101AE000810081608093810080918000816080937B
:101AF00080008091B10084608093B1008091B0003B
:101B000081608093B00080917A00846080937A0035
:101B100080917A00826080937A0080917A0081605F
:101B200080937A0080917A00806880937A00109286
:101B3000C100109243031092440310924503109287
:101B400046031092030310920403109205031092AF
:101B500006030E94C0026B017C014B015C0128EB73
:101B6000820E2BE0921EA11CB11C0E94C0026C15BB
:101B70007D058E059F0528F086169706A806B906EE
:101B8000A0F768EE73E080E090E00E948E020E9471
:101B90008C000E94C002609303037093040380933F
:101BA0000503909306038EE491E00E940C040E94CA
:101BB000C0026B017C014B015C013AE0830E911C79
:101BC000A11CB11C0E94C0026C157D058E059F05ED
:101BD00028F086169706A806B906A0F781E080933C
:101BE00017030E948C000E94320B0E94320B0E944D
:101BF000320B85E290E00E9402138C0186E291E0B4
:101C0000D80111969C938E9313961C921E92129754
:101C10005C961C925C978BE090E090969C938E93E0
:101C20005F97F80111A212A213A214A281E090E022
:101C30000E9402132BE02093800110928201D801B0
:101C40005E969C938E935D97F89482E08093B000AB
:101C50008093B10094E69093B3001092B200809309
:101C60007000789480937F011092830180918001AD
:101C70000E94B40010935E0200935D0239E5232EAA
:101C800032E0332E44EFC42EDD24D394E12CF12C2A
:101C90000E94C002672B682B692B09F4DFC00E94E9
:101CA000C0020091600210916102209162023091A5
:101CB0006302601771078207930708F437C1009128
:101CC00060021091610220916202309163024B0127
:101CD0005C01801A910AA20AB30A950184010A3FA5
:101CE00011052105310508F4C1C0609360027093AD
:101CF00061028093620290936302C0920F03D092BC
:101D00001003E0921103F092120310921303109249
:101D100014031092150310921603809107039091FB
:101D20000803A0910903B0910A0380930B039093D9
:101D30000C03A0930D03B0930E030E94C0026093A6
:101D40000703709308038093090390930A030E948A
:101D5000C002609303037093040380930503909380
:101D600006030E94C0022B013C018FE591E00E9416
:101D70000C044AE061E070E080E090E00E94190409
:101D800086E691E00E940C044AE0C301B2010E9481
:101D9000190488E691E00E940C0480910703909159
:101DA0000803A0910903B0910A03A3019201281B23
:101DB000390B4A0B5B0BCA01B9014AE00E941904B6
:101DC00088E691E00E940C0460910703709108037B
:101DD0008091090390910A0300910B0310910C0369
:101DE00020910D0330910E03601B710B820B930B3E
:101DF0004AE00E9419048AE691E00E940C040E94C5
:101E0000C0024AE00E9419048CE691E00E940C0492
:101E10008BE491E00E940C040E94C0024B015C0123
:101E20002B013C0135E0430E511C611C711C0E94CA
:101E3000C002681579058A059B0528F046165706E5
:101E400068067906A0F70E94C002609307037093AA
:101E500008038093090390930A0308C00E94C002FC
:101E6000623071058105910508F019CF0E94320B8F
:101E70008C01DC018D919C91DC01ED91FC91019034
:101E8000F081E02D0995F80182819381DC01ED91CB
:101E9000FC910190F081E02D0995F80184819581F4
:101EA000DC01ED91FC910190F081E02D099580918C
:101EB0005F0281112CC080915D0290915E02DC0175
:101EC000ED91FC910190F081E02D0995E0915D028A
:101ED000F0915E028281938120915B0230915C02DD
:101EE00028173907A4F490935C0280935B028085E5
:101EF0008F3F29F583858F3F11F582858F3FF9F458
:101F000081858F3FE1F410925A021092590280E0CD
:101F1000A82E80E0B82EAB2809F4BACE0E94460164
:101F2000882309F4B5CE0E940000B2CE609360020F
:101F3000709361028093620290936302C0CE80919D
:101F4000590290915A020097B1F4DF01149681E58D
:101F500092E0AF01445F5F4F2D91FC012193CF01CF
:101F60004A175B07C9F788248394912C90925A02F0
:101F700080925902CCCF019781F481E592E0DF0194
:101F80001496AF01445F5F4FFC013191CF012D9159
:101F90003213B9CF4A175B07B9F701E512E0D80150
:101FA0004D918D0150E0FE01319687E090E09A015D
:101FB000082E02C0359527950A94E2F721702193E7
:101FC0000197A8F76C815E8128853F81962F922723
:101FD0009327852F82278327762F75277227EA81FB
:101FE0004D817E1709F442C07B819717C1F1841798
:101FF00089F181E0211180E0888728858F81682F11
:1020000070E0660F771F260F372F311D8E81E4E0B9
:102010008E9FC0011124280F391F8C81F8E08F9FFB
:10202000B0011124620F731FF8013197608370E0D3
:1020300090E080E04AE00E9419048BE491E00E9465
:102040000C042016310609F0AACF882483948092CC
:102050005F025DCF81E0611180E08C83CECF841779
:1020600029F081E0511180E08E83C7CF841729F2D7
:102070008B81981709F4C1CF81E0311180E08F8303
:10208000BCCF0E94831008F481E00895E89409C051
:1020900097FB3EF490958095709561957F4F8F4F9B
:1020A0009F4F9923A9F0F92F96E9BB279395F695B1
:1020B000879577956795B795F111F8CFFAF4BB0F2F
:1020C00011F460FF1BC06F5F7F4F8F4F9F4F16C093
:1020D000882311F096E911C0772321F09EE8872F1D
:1020E000762F05C0662371F096E8862F70E060E0D9
:1020F0002AF09A95660F771F881FDAF7880F969552
:10210000879597F90895990F0008550FAA0BE0E8F5
:10211000FEEF16161706E807F907C0F012161306A9
:10212000E407F50798F0621B730B840B950B39F4E9
:102130000A2661F0232B242B252B21F408950A264F
:1021400009F4A140A6958FEF811D811D08950E947D
:10215000BA100C942B110E941D1138F00E9424110A
:1021600020F0952311F00C9414110C941A111124E1
:102170000C945F110E943C1170F3959FC1F3950F71
:1021800050E0551F629FF001729FBB27F00DB11DFB
:10219000639FAA27F00DB11DAA1F649F6627B00D8B
:1021A000A11D661F829F2227B00DA11D621F739F74
:1021B000B00DA11D621F839FA00D611D221F749F82
:1021C0003327A00D611D231F849F600D211D822FC9
:1021D000762F6A2F11249F5750409AF0F1F08823F0
:1021E0004AF0EE0FFF1FBB1F661F771F881F91501D
:1021F0005040A9F79E3F510580F00C9414110C94A7
:102200005F115F3FE4F3983ED4F386957795679529
:10221000B795F795E7959F5FC1F7FE2B880F911D46
:102220009695879597F9089597F99F6780E870E0EC
:1022300060E008959FEF80EC089500240A9416163C
:10224000170618060906089500240A9412161306A4
:10225000140605060895092E0394000C11F4882332
:1022600052F0BB0F40F4BF2B11F460FF04C06F5F4E
:102270007F4F8F4F9F4F089557FD9058440F551F24
:1022800059F05F3F71F04795880F97FB991F61F0F8
:102290009F3F79F087950895121613061406551F6F
:1022A000F2CF4695F1DF08C0161617061806991FDB
:1022B000F1CF86957105610508940895E894BB27D0
:1022C00066277727CB0197F90895DB018F939F93BA
:1022D0000E949711BF91AF91A29F800D911DA39F66
:1022E000900DB29F900D11240895A1E21A2EAA1B01
:1022F000BB1BFD010DC0AA1FBB1FEE1FFF1FA217B6
:10230000B307E407F50720F0A21BB30BE40BF50BB2
:10231000661F771F881F991F1A9469F7609570953B
:10232000809590959B01AC01BD01CF0108950E945D
:10233000A211A59F900DB49F900DA49F800D911D9B
:1023400011240895A29FB001B39FC001A39F700DF7
:10235000811D1124911DB29F700D811D1124911DAD
:1023600008955058BB27AA270E94C9110C942B111D
:102370000E941D1138F00E94241120F039F49F3F73
:1023800019F426F40C941A110EF4E095E7FB0C9462
:102390001411E92F0E943C1158F3BA176207730712
:1023A0008407950720F079F4A6F50C945E110EF4DD
:1023B000E0950B2EBA2FA02D0B01B90190010C0155
:1023C000CA01A0011124FF27591B99F0593F50F46D
:1023D000503E68F11A16F040A22F232F342F4427C5
:1023E000585FF3CF469537952795A795F0405395BD
:1023F000C9F77EF41F16BA0B620B730B840BBAF08D
:102400009150A1F0FF0FBB1F661F771F881FC2F7F7
:102410000EC0BA0F621F731F841F48F4879577950B
:102420006795B795F7959E3F08F0B0CF9395880FC5
:1024300008F09927EE0F9795879508950E9432121C
:102440000C942B110E94241158F00E941D1140F091
:1024500029F45F3F29F00C94141151110C945F1171
:102460000C941A110E943C1168F39923B1F355237F
:1024700091F3951B550BBB27AA2762177307840797
:1024800038F09F5F5F4F220F331F441FAA1FA9F32D
:1024900035D00E2E3AF0E0E832D091505040E6951B
:1024A000001CCAF72BD0FE2F29D0660F771F881F7C
:1024B000BB1F261737074807AB07B0E809F0BB0B6F
:1024C000802DBF01FF2793585F4F3AF09E3F510583
:1024D00078F00C9414110C945F115F3FE4F3983E74
:1024E000D4F3869577956795B795F7959F5FC9F76C
:1024F000880F911D9695879597F90895E1E0660FED
:10250000771F881FBB1F621773078407BA0720F065
:10251000621B730B840BBA0BEE1F88F7E0950895CE
:102520000E9497126894B1110C945F1108950E9453
:10253000441188F09F5798F0B92F9927B751B0F000
:10254000E1F0660F771F881F991F1AF0BA95C9F737
:1025500014C0B13091F00E945E11B1E008950C9466
:102560005E11672F782F8827B85F39F0B93FCCF319
:10257000869577956795B395D9F73EF490958095B4
:10258000709561957F4F8F4F9F4F0895002E0830B3
:1025900090F0982F872F762F652F542F432F322FAF
:1025A00022270850F4CF220F331F441F551F661FE8
:1025B000771F881F991F0A95B2F7002D089597FD80
:1025C0001094002E083098F00850232F342F452FF8
:1025D000562F672F782F892F912DF4CF159497952B
:1025E00087957795679557954795379527950A95D8
:1025F000AAF71124002D0895EE0FFF1F0590F49106
:10260000E02D09940F931F93CF93DF9382309105B0
:1026100010F482E090E0E0914903F0914A0330E049
:1026200020E0B0E0A0E0309799F42115310509F4DD
:102630004AC0281B390B24303105D8F58A819B818B
:102640006115710589F1FB0193838283FE0111C03D
:10265000408151810281138148175907E0F04817E2
:10266000590799F4109761F012960C9312971396EC
:102670001C933296CF01DF91CF911F910F91089556
:102680000093490310934A03F4CF2115310551F00B
:102690004217530738F0A901DB019A01BD01DF01A0
:1026A000F801C1CFEF01F9CF90934A03809349031A
:1026B000CDCFFE01E20FF31F819391932250310998
:1026C00039832883D7CF2091470330914803232BA8
:1026D00041F420910201309103013093480320938B
:1026E000470320910001309101012115310541F48A
:1026F0002DB73EB74091040150910501241B350BC5
:10270000E0914703F0914803E217F307A0F42E1B72
:102710003F0B2817390778F0AC014E5F5F4F241745
:10272000350748F04E0F5F1F50934803409347030F
:10273000819391939FCFF0E0E0E09CCFCF93DF9324
:102740000097E9F0FC01329713821282A0914903AD
:10275000B0914A03ED0130E020E01097A1F4208110
:102760003181820F931F209147033091480328172E
:10277000390709F061C0F0934803E0934703DF9104
:10278000CF910895EA01CE17DF07E8F54A815B8112
:102790009E0141155105B1F7E901FB83EA83499197
:1027A0005991C40FD51FEC17FD0761F48081918109
:1027B0000296840F951FE901998388838281938112
:1027C0009B838A83F0E0E0E012968D919C911397B1
:1027D0000097B9F52D913C911197CD010296820F8A
:1027E000931F20914703309148032817390739F682
:1027F000309751F510924A0310924903B093480361
:10280000A0934703BCCFD383C28340815181840FFF
:10281000951FC817D90761F44E5F5F4F8881998172
:10282000480F591F518340838A819B819383828300
:102830002115310509F0B0CFF0934A03E093490325
:102840009ECFFD01DC01C0CF13821282D7CFF89456
:02285000FFCFB8
:1028520000004B03800000000000B903A8038503B9
:1028620000000000060400000000F8030000000061
:10287200CB03000000005D04000000007C01DC00CE
:102882000901C9013A0118012C0152656365697693
:10289200656420646174613A0020000D0A00564D9F
:1028A2004450565F317C315F564D4450560A0056B3
:1028B2004D4450455F003A323A007C005F564D4429
:0428C200504500007D
:00000001FF
